{
  "_format": "hh3-artifact-1",
  "contractName": "ServiceMarketplace",
  "sourceName": "contracts/ServiceMarketplace.sol",
  "abi": [
    {
      "inputs": [
        {
          "internalType": "address",
          "name": "initialOwner",
          "type": "address"
        },
        {
          "internalType": "address",
          "name": "userRegistryAddress",
          "type": "address"
        },
        {
          "internalType": "address",
          "name": "escrowWithLendingAddress",
          "type": "address"
        }
      ],
      "stateMutability": "nonpayable",
      "type": "constructor"
    },
    {
      "inputs": [
        {
          "internalType": "bytes32",
          "name": "bidId",
          "type": "bytes32"
        }
      ],
      "name": "BidNotAccepted",
      "type": "error"
    },
    {
      "inputs": [
        {
          "internalType": "bytes32",
          "name": "bidId",
          "type": "bytes32"
        }
      ],
      "name": "BidNotFound",
      "type": "error"
    },
    {
      "inputs": [
        {
          "internalType": "bytes32",
          "name": "bidId",
          "type": "bytes32"
        }
      ],
      "name": "BidNotPending",
      "type": "error"
    },
    {
      "inputs": [
        {
          "internalType": "uint256",
          "name": "amount",
          "type": "uint256"
        }
      ],
      "name": "InvalidAmount",
      "type": "error"
    },
    {
      "inputs": [
        {
          "internalType": "string",
          "name": "category",
          "type": "string"
        }
      ],
      "name": "InvalidCategory",
      "type": "error"
    },
    {
      "inputs": [
        {
          "internalType": "uint256",
          "name": "deadline",
          "type": "uint256"
        }
      ],
      "name": "InvalidDeadline",
      "type": "error"
    },
    {
      "inputs": [],
      "name": "InvalidUserType",
      "type": "error"
    },
    {
      "inputs": [
        {
          "internalType": "bytes32",
          "name": "orderId",
          "type": "bytes32"
        }
      ],
      "name": "OrderNotAccepted",
      "type": "error"
    },
    {
      "inputs": [
        {
          "internalType": "bytes32",
          "name": "orderId",
          "type": "bytes32"
        }
      ],
      "name": "OrderNotFound",
      "type": "error"
    },
    {
      "inputs": [
        {
          "internalType": "bytes32",
          "name": "orderId",
          "type": "bytes32"
        }
      ],
      "name": "OrderNotInProgress",
      "type": "error"
    },
    {
      "inputs": [
        {
          "internalType": "bytes32",
          "name": "orderId",
          "type": "bytes32"
        }
      ],
      "name": "OrderNotOpen",
      "type": "error"
    },
    {
      "inputs": [
        {
          "internalType": "address",
          "name": "owner",
          "type": "address"
        }
      ],
      "name": "OwnableInvalidOwner",
      "type": "error"
    },
    {
      "inputs": [
        {
          "internalType": "address",
          "name": "account",
          "type": "address"
        }
      ],
      "name": "OwnableUnauthorizedAccount",
      "type": "error"
    },
    {
      "inputs": [
        {
          "internalType": "bytes32",
          "name": "orderId",
          "type": "bytes32"
        }
      ],
      "name": "PaymentAlreadyInitiated",
      "type": "error"
    },
    {
      "inputs": [],
      "name": "ReentrancyGuardReentrantCall",
      "type": "error"
    },
    {
      "inputs": [
        {
          "internalType": "bytes32",
          "name": "orderId",
          "type": "bytes32"
        }
      ],
      "name": "ServiceNotCompleted",
      "type": "error"
    },
    {
      "inputs": [],
      "name": "UnauthorizedAccess",
      "type": "error"
    },
    {
      "inputs": [
        {
          "internalType": "address",
          "name": "user",
          "type": "address"
        }
      ],
      "name": "UserNotActive",
      "type": "error"
    },
    {
      "inputs": [
        {
          "internalType": "address",
          "name": "user",
          "type": "address"
        }
      ],
      "name": "UserNotRegistered",
      "type": "error"
    },
    {
      "anonymous": false,
      "inputs": [
        {
          "indexed": false,
          "internalType": "address",
          "name": "newRecipient",
          "type": "address"
        }
      ],
      "name": "FeeRecipientUpdated",
      "type": "event"
    },
    {
      "anonymous": false,
      "inputs": [
        {
          "indexed": false,
          "internalType": "uint256",
          "name": "minValue",
          "type": "uint256"
        },
        {
          "indexed": false,
          "internalType": "uint256",
          "name": "maxValue",
          "type": "uint256"
        }
      ],
      "name": "OrderLimitsUpdated",
      "type": "event"
    },
    {
      "anonymous": false,
      "inputs": [
        {
          "indexed": true,
          "internalType": "address",
          "name": "previousOwner",
          "type": "address"
        },
        {
          "indexed": true,
          "internalType": "address",
          "name": "newOwner",
          "type": "address"
        }
      ],
      "name": "OwnershipTransferred",
      "type": "event"
    },
    {
      "anonymous": false,
      "inputs": [
        {
          "indexed": true,
          "internalType": "bytes32",
          "name": "orderId",
          "type": "bytes32"
        },
        {
          "indexed": true,
          "internalType": "bytes32",
          "name": "bidId",
          "type": "bytes32"
        },
        {
          "indexed": false,
          "internalType": "address",
          "name": "tokenAddress",
          "type": "address"
        },
        {
          "indexed": false,
          "internalType": "uint256",
          "name": "amount",
          "type": "uint256"
        }
      ],
      "name": "PaymentInitiated",
      "type": "event"
    },
    {
      "anonymous": false,
      "inputs": [
        {
          "indexed": false,
          "internalType": "uint256",
          "name": "newFeePercentage",
          "type": "uint256"
        }
      ],
      "name": "PlatformFeeUpdated",
      "type": "event"
    },
    {
      "anonymous": false,
      "inputs": [
        {
          "indexed": true,
          "internalType": "bytes32",
          "name": "bidId",
          "type": "bytes32"
        },
        {
          "indexed": true,
          "internalType": "bytes32",
          "name": "orderId",
          "type": "bytes32"
        },
        {
          "indexed": true,
          "internalType": "address",
          "name": "bidder",
          "type": "address"
        },
        {
          "indexed": false,
          "internalType": "uint256",
          "name": "finalPrice",
          "type": "uint256"
        }
      ],
      "name": "ServiceBidAccepted",
      "type": "event"
    },
    {
      "anonymous": false,
      "inputs": [
        {
          "indexed": true,
          "internalType": "bytes32",
          "name": "bidId",
          "type": "bytes32"
        },
        {
          "indexed": true,
          "internalType": "bytes32",
          "name": "orderId",
          "type": "bytes32"
        },
        {
          "indexed": true,
          "internalType": "address",
          "name": "bidder",
          "type": "address"
        }
      ],
      "name": "ServiceBidRejected",
      "type": "event"
    },
    {
      "anonymous": false,
      "inputs": [
        {
          "indexed": true,
          "internalType": "bytes32",
          "name": "bidId",
          "type": "bytes32"
        },
        {
          "indexed": true,
          "internalType": "bytes32",
          "name": "orderId",
          "type": "bytes32"
        },
        {
          "indexed": true,
          "internalType": "address",
          "name": "bidder",
          "type": "address"
        },
        {
          "indexed": false,
          "internalType": "uint256",
          "name": "proposedPrice",
          "type": "uint256"
        },
        {
          "indexed": false,
          "internalType": "string",
          "name": "proposal",
          "type": "string"
        }
      ],
      "name": "ServiceBidSubmitted",
      "type": "event"
    },
    {
      "anonymous": false,
      "inputs": [
        {
          "indexed": true,
          "internalType": "bytes32",
          "name": "bidId",
          "type": "bytes32"
        },
        {
          "indexed": true,
          "internalType": "bytes32",
          "name": "orderId",
          "type": "bytes32"
        },
        {
          "indexed": true,
          "internalType": "address",
          "name": "bidder",
          "type": "address"
        }
      ],
      "name": "ServiceBidWithdrawn",
      "type": "event"
    },
    {
      "anonymous": false,
      "inputs": [
        {
          "indexed": true,
          "internalType": "bytes32",
          "name": "orderId",
          "type": "bytes32"
        },
        {
          "indexed": true,
          "internalType": "address",
          "name": "creator",
          "type": "address"
        },
        {
          "indexed": false,
          "internalType": "string",
          "name": "reason",
          "type": "string"
        }
      ],
      "name": "ServiceCancelled",
      "type": "event"
    },
    {
      "anonymous": false,
      "inputs": [
        {
          "indexed": true,
          "internalType": "bytes32",
          "name": "orderId",
          "type": "bytes32"
        },
        {
          "indexed": true,
          "internalType": "bytes32",
          "name": "bidId",
          "type": "bytes32"
        },
        {
          "indexed": true,
          "internalType": "address",
          "name": "serviceProvider",
          "type": "address"
        },
        {
          "indexed": false,
          "internalType": "uint256",
          "name": "finalAmount",
          "type": "uint256"
        }
      ],
      "name": "ServiceCompleted",
      "type": "event"
    },
    {
      "anonymous": false,
      "inputs": [
        {
          "indexed": true,
          "internalType": "bytes32",
          "name": "orderId",
          "type": "bytes32"
        },
        {
          "indexed": true,
          "internalType": "bytes32",
          "name": "bidId",
          "type": "bytes32"
        },
        {
          "indexed": true,
          "internalType": "address",
          "name": "initiator",
          "type": "address"
        }
      ],
      "name": "ServiceDisputed",
      "type": "event"
    },
    {
      "anonymous": false,
      "inputs": [
        {
          "indexed": true,
          "internalType": "bytes32",
          "name": "orderId",
          "type": "bytes32"
        },
        {
          "indexed": true,
          "internalType": "address",
          "name": "creator",
          "type": "address"
        },
        {
          "indexed": false,
          "internalType": "string",
          "name": "title",
          "type": "string"
        },
        {
          "indexed": false,
          "internalType": "string",
          "name": "category",
          "type": "string"
        },
        {
          "indexed": false,
          "internalType": "uint256",
          "name": "maxBudget",
          "type": "uint256"
        }
      ],
      "name": "ServiceOrderCreated",
      "type": "event"
    },
    {
      "inputs": [
        {
          "internalType": "bytes32",
          "name": "bidId",
          "type": "bytes32"
        }
      ],
      "name": "acceptBid",
      "outputs": [],
      "stateMutability": "nonpayable",
      "type": "function"
    },
    {
      "inputs": [
        {
          "internalType": "bytes32",
          "name": "orderId",
          "type": "bytes32"
        },
        {
          "internalType": "string",
          "name": "reason",
          "type": "string"
        }
      ],
      "name": "cancelOrder",
      "outputs": [],
      "stateMutability": "nonpayable",
      "type": "function"
    },
    {
      "inputs": [
        {
          "internalType": "bytes32",
          "name": "orderId",
          "type": "bytes32"
        }
      ],
      "name": "completeService",
      "outputs": [],
      "stateMutability": "nonpayable",
      "type": "function"
    },
    {
      "inputs": [
        {
          "internalType": "string",
          "name": "title",
          "type": "string"
        },
        {
          "internalType": "string",
          "name": "description",
          "type": "string"
        },
        {
          "internalType": "string",
          "name": "category",
          "type": "string"
        },
        {
          "internalType": "string",
          "name": "location",
          "type": "string"
        },
        {
          "internalType": "uint256",
          "name": "maxBudget",
          "type": "uint256"
        },
        {
          "internalType": "uint256",
          "name": "deadline",
          "type": "uint256"
        },
        {
          "internalType": "address",
          "name": "tokenAddress",
          "type": "address"
        }
      ],
      "name": "createServiceOrder",
      "outputs": [
        {
          "internalType": "bytes32",
          "name": "",
          "type": "bytes32"
        }
      ],
      "stateMutability": "nonpayable",
      "type": "function"
    },
    {
      "inputs": [],
      "name": "escrowWithLending",
      "outputs": [
        {
          "internalType": "contract EscrowWithLending",
          "name": "",
          "type": "address"
        }
      ],
      "stateMutability": "view",
      "type": "function"
    },
    {
      "inputs": [],
      "name": "feeRecipient",
      "outputs": [
        {
          "internalType": "address",
          "name": "",
          "type": "address"
        }
      ],
      "stateMutability": "view",
      "type": "function"
    },
    {
      "inputs": [
        {
          "internalType": "bytes32",
          "name": "orderId",
          "type": "bytes32"
        }
      ],
      "name": "getOrderBids",
      "outputs": [
        {
          "internalType": "bytes32[]",
          "name": "",
          "type": "bytes32[]"
        }
      ],
      "stateMutability": "view",
      "type": "function"
    },
    {
      "inputs": [
        {
          "internalType": "bytes32",
          "name": "bidId",
          "type": "bytes32"
        }
      ],
      "name": "getServiceBid",
      "outputs": [
        {
          "components": [
            {
              "internalType": "bytes32",
              "name": "bidId",
              "type": "bytes32"
            },
            {
              "internalType": "bytes32",
              "name": "orderId",
              "type": "bytes32"
            },
            {
              "internalType": "address",
              "name": "bidder",
              "type": "address"
            },
            {
              "internalType": "uint256",
              "name": "proposedPrice",
              "type": "uint256"
            },
            {
              "internalType": "string",
              "name": "proposal",
              "type": "string"
            },
            {
              "internalType": "uint256",
              "name": "estimatedDuration",
              "type": "uint256"
            },
            {
              "internalType": "enum ServiceMarketplace.BidStatus",
              "name": "status",
              "type": "uint8"
            },
            {
              "internalType": "uint256",
              "name": "createdAt",
              "type": "uint256"
            },
            {
              "internalType": "uint256",
              "name": "updatedAt",
              "type": "uint256"
            }
          ],
          "internalType": "struct ServiceMarketplace.ServiceBid",
          "name": "",
          "type": "tuple"
        }
      ],
      "stateMutability": "view",
      "type": "function"
    },
    {
      "inputs": [
        {
          "internalType": "bytes32",
          "name": "orderId",
          "type": "bytes32"
        }
      ],
      "name": "getServiceOrder",
      "outputs": [
        {
          "components": [
            {
              "internalType": "bytes32",
              "name": "orderId",
              "type": "bytes32"
            },
            {
              "internalType": "address",
              "name": "creator",
              "type": "address"
            },
            {
              "internalType": "string",
              "name": "title",
              "type": "string"
            },
            {
              "internalType": "string",
              "name": "description",
              "type": "string"
            },
            {
              "internalType": "string",
              "name": "category",
              "type": "string"
            },
            {
              "internalType": "string",
              "name": "location",
              "type": "string"
            },
            {
              "internalType": "uint256",
              "name": "maxBudget",
              "type": "uint256"
            },
            {
              "internalType": "uint256",
              "name": "deadline",
              "type": "uint256"
            },
            {
              "internalType": "enum ServiceMarketplace.OrderStatus",
              "name": "status",
              "type": "uint8"
            },
            {
              "internalType": "bytes32",
              "name": "acceptedBidId",
              "type": "bytes32"
            },
            {
              "internalType": "address",
              "name": "tokenAddress",
              "type": "address"
            },
            {
              "internalType": "uint256",
              "name": "totalAmount",
              "type": "uint256"
            },
            {
              "internalType": "bytes32",
              "name": "escrowId",
              "type": "bytes32"
            },
            {
              "internalType": "uint256",
              "name": "createdAt",
              "type": "uint256"
            },
            {
              "internalType": "uint256",
              "name": "updatedAt",
              "type": "uint256"
            }
          ],
          "internalType": "struct ServiceMarketplace.ServiceOrder",
          "name": "",
          "type": "tuple"
        }
      ],
      "stateMutability": "view",
      "type": "function"
    },
    {
      "inputs": [
        {
          "internalType": "address",
          "name": "user",
          "type": "address"
        }
      ],
      "name": "getUserBids",
      "outputs": [
        {
          "internalType": "bytes32[]",
          "name": "",
          "type": "bytes32[]"
        }
      ],
      "stateMutability": "view",
      "type": "function"
    },
    {
      "inputs": [
        {
          "internalType": "address",
          "name": "user",
          "type": "address"
        }
      ],
      "name": "getUserOrders",
      "outputs": [
        {
          "internalType": "bytes32[]",
          "name": "",
          "type": "bytes32[]"
        }
      ],
      "stateMutability": "view",
      "type": "function"
    },
    {
      "inputs": [
        {
          "internalType": "bytes32",
          "name": "orderId",
          "type": "bytes32"
        }
      ],
      "name": "initiateDispute",
      "outputs": [],
      "stateMutability": "nonpayable",
      "type": "function"
    },
    {
      "inputs": [
        {
          "internalType": "bytes32",
          "name": "orderId",
          "type": "bytes32"
        },
        {
          "components": [
            {
              "components": [
                {
                  "internalType": "address",
                  "name": "token",
                  "type": "address"
                },
                {
                  "internalType": "uint256",
                  "name": "amount",
                  "type": "uint256"
                }
              ],
              "internalType": "struct IPermit2.TokenPermissions",
              "name": "permitted",
              "type": "tuple"
            },
            {
              "internalType": "uint256",
              "name": "nonce",
              "type": "uint256"
            },
            {
              "internalType": "uint256",
              "name": "deadline",
              "type": "uint256"
            }
          ],
          "internalType": "struct IPermit2.PermitTransferFrom",
          "name": "permit",
          "type": "tuple"
        },
        {
          "internalType": "bytes",
          "name": "signature",
          "type": "bytes"
        }
      ],
      "name": "initiatePayment",
      "outputs": [
        {
          "internalType": "bytes32",
          "name": "",
          "type": "bytes32"
        }
      ],
      "stateMutability": "nonpayable",
      "type": "function"
    },
    {
      "inputs": [],
      "name": "maxOrderValue",
      "outputs": [
        {
          "internalType": "uint256",
          "name": "",
          "type": "uint256"
        }
      ],
      "stateMutability": "view",
      "type": "function"
    },
    {
      "inputs": [],
      "name": "minOrderValue",
      "outputs": [
        {
          "internalType": "uint256",
          "name": "",
          "type": "uint256"
        }
      ],
      "stateMutability": "view",
      "type": "function"
    },
    {
      "inputs": [
        {
          "internalType": "bytes32",
          "name": "",
          "type": "bytes32"
        },
        {
          "internalType": "uint256",
          "name": "",
          "type": "uint256"
        }
      ],
      "name": "orderBids",
      "outputs": [
        {
          "internalType": "bytes32",
          "name": "",
          "type": "bytes32"
        }
      ],
      "stateMutability": "view",
      "type": "function"
    },
    {
      "inputs": [],
      "name": "owner",
      "outputs": [
        {
          "internalType": "address",
          "name": "",
          "type": "address"
        }
      ],
      "stateMutability": "view",
      "type": "function"
    },
    {
      "inputs": [],
      "name": "platformFeePercentage",
      "outputs": [
        {
          "internalType": "uint256",
          "name": "",
          "type": "uint256"
        }
      ],
      "stateMutability": "view",
      "type": "function"
    },
    {
      "inputs": [
        {
          "internalType": "bytes32",
          "name": "bidId",
          "type": "bytes32"
        }
      ],
      "name": "rejectBid",
      "outputs": [],
      "stateMutability": "nonpayable",
      "type": "function"
    },
    {
      "inputs": [],
      "name": "renounceOwnership",
      "outputs": [],
      "stateMutability": "nonpayable",
      "type": "function"
    },
    {
      "inputs": [
        {
          "internalType": "bytes32",
          "name": "",
          "type": "bytes32"
        }
      ],
      "name": "serviceBids",
      "outputs": [
        {
          "internalType": "bytes32",
          "name": "bidId",
          "type": "bytes32"
        },
        {
          "internalType": "bytes32",
          "name": "orderId",
          "type": "bytes32"
        },
        {
          "internalType": "address",
          "name": "bidder",
          "type": "address"
        },
        {
          "internalType": "uint256",
          "name": "proposedPrice",
          "type": "uint256"
        },
        {
          "internalType": "string",
          "name": "proposal",
          "type": "string"
        },
        {
          "internalType": "uint256",
          "name": "estimatedDuration",
          "type": "uint256"
        },
        {
          "internalType": "enum ServiceMarketplace.BidStatus",
          "name": "status",
          "type": "uint8"
        },
        {
          "internalType": "uint256",
          "name": "createdAt",
          "type": "uint256"
        },
        {
          "internalType": "uint256",
          "name": "updatedAt",
          "type": "uint256"
        }
      ],
      "stateMutability": "view",
      "type": "function"
    },
    {
      "inputs": [
        {
          "internalType": "bytes32",
          "name": "",
          "type": "bytes32"
        }
      ],
      "name": "serviceOrders",
      "outputs": [
        {
          "internalType": "bytes32",
          "name": "orderId",
          "type": "bytes32"
        },
        {
          "internalType": "address",
          "name": "creator",
          "type": "address"
        },
        {
          "internalType": "string",
          "name": "title",
          "type": "string"
        },
        {
          "internalType": "string",
          "name": "description",
          "type": "string"
        },
        {
          "internalType": "string",
          "name": "category",
          "type": "string"
        },
        {
          "internalType": "string",
          "name": "location",
          "type": "string"
        },
        {
          "internalType": "uint256",
          "name": "maxBudget",
          "type": "uint256"
        },
        {
          "internalType": "uint256",
          "name": "deadline",
          "type": "uint256"
        },
        {
          "internalType": "enum ServiceMarketplace.OrderStatus",
          "name": "status",
          "type": "uint8"
        },
        {
          "internalType": "bytes32",
          "name": "acceptedBidId",
          "type": "bytes32"
        },
        {
          "internalType": "address",
          "name": "tokenAddress",
          "type": "address"
        },
        {
          "internalType": "uint256",
          "name": "totalAmount",
          "type": "uint256"
        },
        {
          "internalType": "bytes32",
          "name": "escrowId",
          "type": "bytes32"
        },
        {
          "internalType": "uint256",
          "name": "createdAt",
          "type": "uint256"
        },
        {
          "internalType": "uint256",
          "name": "updatedAt",
          "type": "uint256"
        }
      ],
      "stateMutability": "view",
      "type": "function"
    },
    {
      "inputs": [
        {
          "internalType": "address",
          "name": "newRecipient",
          "type": "address"
        }
      ],
      "name": "setFeeRecipient",
      "outputs": [],
      "stateMutability": "nonpayable",
      "type": "function"
    },
    {
      "inputs": [
        {
          "internalType": "uint256",
          "name": "minValue",
          "type": "uint256"
        },
        {
          "internalType": "uint256",
          "name": "maxValue",
          "type": "uint256"
        }
      ],
      "name": "setOrderLimits",
      "outputs": [],
      "stateMutability": "nonpayable",
      "type": "function"
    },
    {
      "inputs": [
        {
          "internalType": "uint256",
          "name": "newFeePercentage",
          "type": "uint256"
        }
      ],
      "name": "setPlatformFee",
      "outputs": [],
      "stateMutability": "nonpayable",
      "type": "function"
    },
    {
      "inputs": [
        {
          "internalType": "bytes32",
          "name": "orderId",
          "type": "bytes32"
        },
        {
          "internalType": "uint256",
          "name": "proposedPrice",
          "type": "uint256"
        },
        {
          "internalType": "string",
          "name": "proposal",
          "type": "string"
        },
        {
          "internalType": "uint256",
          "name": "estimatedDuration",
          "type": "uint256"
        }
      ],
      "name": "submitBid",
      "outputs": [
        {
          "internalType": "bytes32",
          "name": "",
          "type": "bytes32"
        }
      ],
      "stateMutability": "nonpayable",
      "type": "function"
    },
    {
      "inputs": [],
      "name": "totalBids",
      "outputs": [
        {
          "internalType": "uint256",
          "name": "",
          "type": "uint256"
        }
      ],
      "stateMutability": "view",
      "type": "function"
    },
    {
      "inputs": [],
      "name": "totalOrders",
      "outputs": [
        {
          "internalType": "uint256",
          "name": "",
          "type": "uint256"
        }
      ],
      "stateMutability": "view",
      "type": "function"
    },
    {
      "inputs": [
        {
          "internalType": "address",
          "name": "newOwner",
          "type": "address"
        }
      ],
      "name": "transferOwnership",
      "outputs": [],
      "stateMutability": "nonpayable",
      "type": "function"
    },
    {
      "inputs": [
        {
          "internalType": "address",
          "name": "",
          "type": "address"
        },
        {
          "internalType": "uint256",
          "name": "",
          "type": "uint256"
        }
      ],
      "name": "userBids",
      "outputs": [
        {
          "internalType": "bytes32",
          "name": "",
          "type": "bytes32"
        }
      ],
      "stateMutability": "view",
      "type": "function"
    },
    {
      "inputs": [
        {
          "internalType": "address",
          "name": "",
          "type": "address"
        },
        {
          "internalType": "uint256",
          "name": "",
          "type": "uint256"
        }
      ],
      "name": "userOrders",
      "outputs": [
        {
          "internalType": "bytes32",
          "name": "",
          "type": "bytes32"
        }
      ],
      "stateMutability": "view",
      "type": "function"
    },
    {
      "inputs": [],
      "name": "userRegistry",
      "outputs": [
        {
          "internalType": "contract UserRegistry",
          "name": "",
          "type": "address"
        }
      ],
      "stateMutability": "view",
      "type": "function"
    },
    {
      "inputs": [
        {
          "internalType": "bytes32",
          "name": "bidId",
          "type": "bytes32"
        }
      ],
      "name": "withdrawBid",
      "outputs": [],
      "stateMutability": "nonpayable",
      "type": "function"
    }
  ],
  "bytecode": "0x60c03461015257601f612edd38819003918201601f19168301916001600160401b0383118484101761015657808492606094604052833981010312610152576100478161016a565b61005f60406100586020850161016a565b930161016a565b6001600160a01b0390911690811561013f575f80546001600160a01b0319811684178255604051949184916001600160a01b0316907f8be0079c531659141344cd1fd0a4f28419497f9722a3daafe3b4186f6b6457e09080a3600180556005600755620f424060095564e8d4a51000600a556001600160a01b039081166080521660a052600880546001600160a01b031916919091179055612d5e908161017f82396080518181816106630152818161101c01528181611f5401526120ac015260a051818181610e5d015281816119530152818161203101526123850152f35b631e4fbdf760e01b5f525f60045260245ffd5b5f80fd5b634e487b7160e01b5f52604160045260245ffd5b51906001600160a01b03821682036101525756fe6080806040526004361015610012575f80fd5b5f905f3560e01c9081630ce4abf81461279e5750806312e8e2c3146127155780631d834409146126f85780631f4d2d151461248d5780632f866a18146121d85780633d558a2114611fac5780634690484014611f835780635c7460d614611f3e57806362d8225014611e3257806363c69f0814611dc05780636759789f14611d4e578063715018a614611cf457806374d128d914611b7f578063764ce1a714611a715780637b2e941e146118d357806383f8220614610f53578063856652e914610f0b57806389c2d1a014610ed15780638b03413614610eb35780638da5cb5b14610e8c57806391c2959614610e4757806396ec50c314610df05780639e2c8ff114610dd2578063a9381d2114610d39578063c55dc86314610bba578063cdd78cfc14610b9c578063d8e2d56914610615578063e6db2e35146105a1578063e74b981b146104f5578063f2fde38b1461046f578063f314720c146103be578063f5622acc1461027f5763f7fd24c714610189575f80fd5b3461027c57602036600319011261027c576004356101a5612a95565b8082526003602052604082206002810180549091906001600160a01b03168015610268573303610259576006810160ff81541660048110156102455761023157805460ff191660031790554260088201556001015490546001600160a01b0316917f9f25164609ce63461a72b3f39a85693991a9dc066450ee5709d6f99056d502a58480a46001805580f35b63cb55e5df60e01b85526004849052602485fd5b634e487b7160e01b86526021600452602486fd5b631a27eac360e11b8452600484fd5b63ea21137960e01b85526004849052602485fd5b80fd5b503461027c57602036600319011261027c5760043581526002602052604090208054600160a01b6001900360018301541691600281016102be90612974565b6102ca60038301612974565b916102d760048201612974565b926102e460058301612974565b936006830154946007840154600885015460ff16600986015491600160a01b60019003600a8801541693600b88015495600c89015497600d8a015499600e01549a6040519e8f9e8f908152602001528d604081016101e090526101e00161034a916127b8565b8d810360608f015261035b916127b8565b8c810360808e015261036c916127b8565b8b810360a08d015261037d916127b8565b9860c08b015260e08a01526101008901610396916127dc565b6101208801526101408701526101608601526101808501526101a08401526101c08301520390f35b503461027c57602036600319011261027c576040906004358152600360205220805460018201549160018060a01b0360028201541660038201549161046061040860048301612974565b9361045060058401549560ff6006860154169260086007870154960154966040519a8b9a8b5260208b015260408a0152606089015261012060808901526101208801906127b8565b9460a087015260c0860190612906565b60e08401526101008301520390f35b503461027c57602036600319011261027c576104896128b7565b610491612a6f565b6001600160a01b031680156104e15781546001600160a01b03198116821783556001600160a01b03167f8be0079c531659141344cd1fd0a4f28419497f9722a3daafe3b4186f6b6457e08380a380f35b631e4fbdf760e01b82526004829052602482fd5b503461027c57602036600319011261027c5761050f6128b7565b610517612a6f565b6001600160a01b03168015610568576020817f7a7b5a0a132f9e0581eb8527f66eae9ee89c2a3e79d4ac7e41a1f1f4d48a7fc2926001600160601b0360a01b6008541617600855604051908152a180f35b60405162461bcd60e51b8152602060048201526011602482015270125b9d985b1a59081c9958da5c1a595b9d607a1b6044820152606490fd5b503461027c57602036600319011261027c576004358152600460205260408120604051918260208354918281520192825260208220915b8181106105ff576105fb856105ef81870382612835565b604051918291826128cd565b0390f35b82548452602090930192600192830192016105d8565b503461027c57608036600319011261027c576044356001600160401b038111610b9857610646903690600401612871565b61064e612a95565b60405163c3c5a54760e01b81523360048201527f00000000000000000000000000000000000000000000000000000000000000006001600160a01b031690602081602481855afa908115610b40578491610b5e575b5015610b4b576040516357a1c5e960e01b8152336004820152602081602481855afa908115610b40578491610b02575b5015610aef578260249160405192838092634c3f70ab60e11b82523360048301525afa8015610ae4576020918491610ac2575b5001516002811015610aae575f1901610a9f57600435825260026020526040822060018101549091906001600160a01b031615610a8a5760ff600883015416600781101561097657610a7557600682015460243511610a615760095460243510610a6157600c54604051602081019160043583523360601b604083015260243560548301524260748301526094820152609481526107a560b482612835565b51902091604051936107b685612819565b83855260208501600435815260408601338152606087016024358152608088019186835260643560a08a01528460c08a01524260e08a0152426101008a0152878552600360205260408520938951855551600185015560018060a01b03905116600284019060018060a01b03166001600160601b0360a01b825416179055516003830155518051906001600160401b038211610a4d57819061085b600485015461293c565b601f81116109fd575b50602090601f831160011461099557859261098a575b50508160011b915f199060031b1c19161760048201555b60a086015160058201556006810160c08701516004811015610976576020976008926101009260ff8019835416911617905560e0810151600785015501519101556004358152600485526108e88460408320612a14565b338152600685526108fc8460408320612a14565b610907600c54612a4d565b600c5550600160ff19600883015416176008820155600e42910155604051906024358252604084830152827febbcaba71262e43a32fea65d694b7c4ecf245d2b72674ec5843a1d3a85af23333393806109676004359560408301906127b8565b0390a460018055604051908152f35b634e487b7160e01b84526021600452602484fd5b015190505f8061087a565b6004850186528186209250601f198416865b8181106109e557509084600195949392106109cd575b505050811b016004820155610891565b01515f1960f88460031b161c191690555f80806109bd565b929360206001819287860151815501950193016109a7565b90915060048401855260208520601f840160051c810160208510610a46575b90849392915b601f830160051c82018110610a38575050610864565b878155859450600101610a22565b5080610a1c565b634e487b7160e01b84526041600452602484fd5b633728b83d60e01b83526024803560045283fd5b6339619a1d60e01b8352600480359052602483fd5b6359485ed960e01b8352600480359052602483fd5b63125619a960e31b8252600482fd5b634e487b7160e01b83526021600452602483fd5b610ade91503d8086833e610ad68183612835565b810190612b90565b5f610706565b6040513d85823e3d90fd5b63071fb5af60e51b835233600452602483fd5b90506020813d602011610b38575b81610b1d60209383612835565b81010312610b3457610b2e90612ab5565b5f6106d3565b8380fd5b3d9150610b10565b6040513d86823e3d90fd5b635713986560e11b835233600452602483fd5b90506020813d602011610b90575b81610b7960209383612835565b81010312610b3457610b8a90612ab5565b5f6106a3565b3d9150610b6c565b5080fd5b503461027c578060031936011261027c576020600754604051908152f35b503461027c57602036600319011261027c57600435610bd7612a95565b80825260036020526040822090600182019081549182855260026020526040852093600281019360018060a01b0385541615610d255760018601546001600160a01b03163303610d16576006820160ff8154166004811015610d0257610cee57600887019160ff8354166007811015610cda57600103610cc857506020927f59d3457949f03c76c000b305291f796f457cccadb4b0c6f84cada59e36d32c1f9492600392600160ff19825416179055426008830155600260ff1982541617905585600989015501958654600b820155600e42910155549360018060a01b039054169454604051908152a46001805580f35b6339619a1d60e01b8952600452602488fd5b634e487b7160e01b8a52602160045260248afd5b63cb55e5df60e01b88526004859052602488fd5b634e487b7160e01b89526021600452602489fd5b631a27eac360e11b8752600487fd5b63ea21137960e01b87526004849052602487fd5b503461027c57604036600319011261027c57600435602435610d59612a6f565b80821015610d9c57816040917f9008c5f12ba9ce7db2a3644b35485cf65bd0a7afe095d7d7f135b6a4b4babc5f9360095580600a5582519182526020820152a180f35b60405162461bcd60e51b815260206004820152600e60248201526d496e76616c6964206c696d69747360901b6044820152606490fd5b503461027c578060031936011261027c576020600954604051908152f35b503461027c57604036600319011261027c57610e0a6128b7565b6001600160a01b031681526006602052604081208054602435929083101561027c576020610e388484612913565b90549060031b1c604051908152f35b503461027c578060031936011261027c576040517f00000000000000000000000000000000000000000000000000000000000000006001600160a01b03168152602090f35b503461027c578060031936011261027c57546040516001600160a01b039091168152602090f35b503461027c578060031936011261027c576020600c54604051908152f35b503461027c57604036600319011261027c5760243590600435815260046020526040812090815483101561027c576020610e388484612913565b503461027c57604036600319011261027c57610f256128b7565b6001600160a01b031681526005602052604081208054602435929083101561027c576020610e388484612913565b503461027c5760e036600319011261027c576004356001600160401b038111610b9857610f84903690600401612871565b6024356001600160401b0381116118cf57610fa3903690600401612871565b906044356001600160401b038111610b3457610fc3903690600401612871565b906064356001600160401b0381116118cb57610fe3903690600401612871565b916084359260a43560c4359560018060a01b0387168097036118c757611007612a95565b60405163c3c5a54760e01b81523360048201527f00000000000000000000000000000000000000000000000000000000000000006001600160a01b031690602081602481855afa90811561186f578a9161188d575b501561187a576040516357a1c5e960e01b8152336004820152602081602481855afa90811561186f578a91611831575b501561181e578860249160405192838092634c3f70ab60e11b82523360048301525afa8015611813576020918a916117f9575b5001516002811015610d02576117ea57600954861080156117df575b6117cb57428211156117b7578351156117915787600b54611140604080518093603460208301963360601b885260208d8051918291018487015e84018281019182528951809260208c01905e0101904282526020820152036020810184520182612835565b5190209660405192611151846127e9565b88845260208401943386526040850193888552606086015286608086015260a08501528760c085015260e084015288610100840152886101208401526101408301528761016083015287610180830152426101a0830152426101c0830152868852600260205260408820928251845560018060a01b03905116600184019060018060a01b03166001600160601b0360a01b825416179055518051906001600160401b038211611534578190611209600286015461293c565b601f8111611741575b50602090601f83116001146116d9578a926116ce575b50508160011b915f199060031b1c19161760028301555b60608101518051906001600160401b038211611534578190611264600386015461293c565b601f811161167e575b50602090601f8311600114611616578a9261160b575b50508160011b915f199060031b1c19161760038301555b60808101518051906001600160401b0382116115345781906112bf600486015461293c565b601f81116115bb575b50602090601f8311600114611553578a92611548575b50508160011b915f199060031b1c19161760048301555b60a08101518051906001600160401b03821161153457819061131a600586015461293c565b601f81116114e1575b50602090601f8311600114611479578a9261146e575b50508160011b915f199060031b1c19161760058301555b60c0810151600683015560e08101516007830155600882016101008201516007811015610d025787604060209a829896600e6101c0611456987f67917744a50aca948f609a6a7e472bb6395783eda466b2ea3e3acc078ac881279b986114269860ff80198354169116179055610120810151600985015560018060a01b0361014082015116600a85019060018060a01b03166001600160601b0360a01b825416179055610160810151600b850155610180810151600c8501556101a0810151600d850155015191015533815260058c5220612a14565b611431600b54612a4d565b600b55611449604051936060855260608501906127b8565b90838203898501526127b8565b9360408201528033940390a360018055604051908152f35b015190505f80611339565b600586018b52818b209250601f1984168b5b8181106114c957509084600195949392106114b1575b505050811b016005830155611350565b01515f1960f88460031b161c191690555f80806114a1565b9293602060018192878601518155019501930161148b565b909150600585018a5260208a20601f840160051c8101916020851061152a575b90601f859493920160051c01905b81811061151c5750611323565b8b815584935060010161150f565b9091508190611501565b634e487b7160e01b89526041600452602489fd5b015190505f806112de565b600486018b52818b209250601f1984168b5b8181106115a3575090846001959493921061158b575b505050811b0160048301556112f5565b01515f1960f88460031b161c191690555f808061157b565b92936020600181928786015181550195019301611565565b909150600485018a5260208a20601f840160051c810160208510611604575b90849392915b601f830160051c820181106115f65750506112c8565b8c81558594506001016115e0565b50806115da565b015190505f80611283565b600386018b52818b209250601f1984168b5b818110611666575090846001959493921061164e575b505050811b01600383015561129a565b01515f1960f88460031b161c191690555f808061163e565b92936020600181928786015181550195019301611628565b909150600385018a5260208a20601f840160051c8101602085106116c7575b90849392915b601f830160051c820181106116b957505061126d565b8c81558594506001016116a3565b508061169d565b015190505f80611228565b600286018b52818b209250601f1984168b5b8181106117295750908460019594939210611711575b505050811b01600283015561123f565b01515f1960f88460031b161c191690555f8080611701565b929360206001819287860151815501950193016116eb565b909150600285018a5260208a20601f840160051c81016020851061178a575b90849392915b601f830160051c8201811061177c575050611212565b8c8155859450600101611766565b5080611760565b60405163be2cdf2560e01b815260206004820152806117b360248201876127b8565b0390fd5b6309decb5d60e21b88526004829052602488fd5b633728b83d60e01b88526004869052602488fd5b50600a5486116110db565b63125619a960e31b8852600488fd5b61180d91503d808c833e610ad68183612835565b5f6110bf565b6040513d8b823e3d90fd5b63071fb5af60e51b895233600452602489fd5b90506020813d602011611867575b8161184c60209383612835565b810103126118635761185d90612ab5565b5f61108c565b8980fd5b3d915061183f565b6040513d8c823e3d90fd5b635713986560e11b895233600452602489fd5b90506020813d6020116118bf575b816118a860209383612835565b81010312611863576118b990612ab5565b5f61105c565b3d915061189b565b8780fd5b8480fd5b8280fd5b503461027c57602036600319011261027c576004356118f0612a95565b80825260026020526040822060018101549091906001600160a01b03168015611a5d5733141580611a37575b611a28576008820160ff8154166007811015611a1457600303611a0157805460ff1916600617905542600e830155600c82015483907f00000000000000000000000000000000000000000000000000000000000000006001600160a01b031690813b156118cf578291602483926040519485938492633d974a0f60e11b845260048401525af180156119f6576119e1575b5050600933920154907f2d8e366849b2506ad6ca613a0809c8a0b6dee9c30cbf9c6b19432e4fe62469b18480a46001805580f35b816119eb91612835565b6118cf57825f6119ad565b6040513d84823e3d90fd5b62010b4d60ee1b84526004829052602484fd5b634e487b7160e01b85526021600452602485fd5b631a27eac360e11b8352600483fd5b5060098201548352600360205260408320600201546001600160a01b031633141561191c565b6359485ed960e01b84526004829052602484fd5b503461027c57602036600319011261027c57600435611a8e612a95565b808252600360205260408220600181018054845260026020526040842091600281019260018060a01b0384541615611b6b57600101546001600160a01b03163303611b5c576006810160ff8154166004811015611b4857611b3457805460ff1916600217905542600891909101555490546001600160a01b0316917f9242edfc66ca72edaeacfe582db56709a25c405efa38b1412defac71bacc63d98480a46001805580f35b63cb55e5df60e01b86526004859052602486fd5b634e487b7160e01b87526021600452602487fd5b631a27eac360e11b8552600485fd5b63ea21137960e01b86526004859052602486fd5b503461027c57602036600319011261027c5780610100604051611ba181612819565b828152826020820152826040820152826060820152606060808201528260a08201528260c08201528260e0820152015260043581526003602052604081209060405190611bed82612819565b825482526001830154926020830193845260018060a01b03600282015416906040840191825260038101549260608501938452611c2c60048301612974565b6080860190815260058301549460a0870195865260ff60068501541660c08801936004821015611ce0575091611cbc918493611cce9552600860078701549660e08b019788520154966101008a019788526040519a8b9a60208c525160208c01525160408b015260018060a01b0390511660608a01525160808901525161012060a08901526101408801906127b8565b945160c08701525160e0860190612906565b51610100840152516101208301520390f35b634e487b7160e01b81526021600452602490fd5b503461027c578060031936011261027c57611d0d612a6f565b80546001600160a01b03198116825581906001600160a01b03167f8be0079c531659141344cd1fd0a4f28419497f9722a3daafe3b4186f6b6457e08280a380f35b503461027c57602036600319011261027c576001600160a01b03611d706128b7565b168152600660205260408120604051918260208354918281520192825260208220915b818110611daa576105fb856105ef81870382612835565b8254845260209093019260019283019201611d93565b503461027c57602036600319011261027c576001600160a01b03611de26128b7565b168152600560205260408120604051918260208354918281520192825260208220915b818110611e1c576105fb856105ef81870382612835565b8254845260209093019260019283019201611e05565b503461027c57604036600319011261027c576004356024356001600160401b0381116118cf57611e66903690600401612871565b90611e6f612a95565b80835260026020526040832060018101546001600160a01b03168015611f2a573303610259576008810160ff81541660078110156102455760048114908115611f1f575b50611f0b57600560ff19825416179055600e429101557f1214a26f3038a29612f6fae09c5968582098fa2ee900dbdb881c39fa5c8bf1426040516020815280611f01339560208301906127b8565b0390a36001805580f35b6339619a1d60e01b85526004839052602485fd5b60059150145f611eb3565b6359485ed960e01b85526004839052602485fd5b503461027c578060031936011261027c576040517f00000000000000000000000000000000000000000000000000000000000000006001600160a01b03168152602090f35b503461027c578060031936011261027c576008546040516001600160a01b039091168152602090f35b503461218c57602036600319011261218c57600435611fc9612a95565b805f52600260205260405f2090600982019081545f52600360205260405f2060018060a01b03600185015416156121c55760020180549092906001600160a01b031633036121b6576008840160ff81541660078110156121a25760030361219057600c8501547f00000000000000000000000000000000000000000000000000000000000000006001600160a01b031690813b1561218c575f916024839260405194859384926304313af160e01b845260048401525af180156121815761216c575b50805460ff1916600417905542600e8501558254600b9094018054909486917f00000000000000000000000000000000000000000000000000000000000000006001600160a01b03908116921690823b15610b34576064849283604051958694859363c5da995960e01b85526004850152605f602485015260448401525af180156119f657612157575b505060207f39d3b516ba6f73c1e2009a18a64884ed01fa561cc01a4c4fb95c743ee4788f3891549360018060a01b039054169454604051908152a46001805580f35b8161216191612835565b6118cb57845f612115565b6121799196505f90612835565b5f945f61208b565b6040513d5f823e3d90fd5b5f80fd5b8262010b4d60ee1b5f5260045260245ffd5b634e487b7160e01b5f52602160045260245ffd5b631a27eac360e11b5f5260045ffd5b506359485ed960e01b5f5260045260245ffd5b3461218c5760c036600319011261218c57600435608036602319011261218c5760a435906001600160401b03821161218c573660238301121561218c578160040135906001600160401b03821161218c57366024838501011161218c5761223d612a95565b805f52600260205260405f2090600982019384545f52600360205260405f209260018060a01b03600182015416801561247a5733036121b6576008810160ff81541660078110156121a25760020361246757600b82019283549586156124555760020154600a84018054604051654f524445525f60d01b602082015260268082018a905281526001600160a01b039384169a92999293612315939192166122e5604684612835565b6040519b6302b6cc7760e01b8d5260048d015260248c015260448b015261012060648b01526101248a01906127b8565b916024356001600160a01b0381169081900361218c57602093838b94602487958795608487015260443560a487015260643560c487015260843560e48701526003198686030161010487015282855201858401375f848284010152601f8019910116010301815f60018060a01b037f0000000000000000000000000000000000000000000000000000000000000000165af1958615612181575f9661241a575b5091602096827f9135838425319dea6edf5d59ea7b9203963ff849b6badd9222bf3abbb421346d9488600c6040960155600360ff19825416179055600e42910155549460018060a01b039054169054825191825287820152a360018055604051908152f35b91929095506020823d60201161244d575b8161243860209383612835565b8101031261218c5790519490919060206123b5565b3d915061242b565b8562747f4960e91b5f5260045260245ffd5b8363322b84ef60e11b5f5260045260245ffd5b836359485ed960e01b5f5260045260245ffd5b3461218c57602036600319011261218c575f6101c06040516124ae816127e9565b8281528260208201526060604082015260608082015260606080820152606060a08201528260c08201528260e08201528261010082015282610120820152826101408201528261016082015282610180820152826101a082015201526004355f52600260205260405f2060405190612525826127e9565b8054825260018101546001600160a01b0316602083019081529061254b60028201612974565b906040840191825261255f60038201612974565b906060850191825261257360048201612974565b926080860193845261258760058301612974565b9260a0870193845260068301549460c0880195865260078401549460e0890195865260ff600886015416956101008a019060078810156121a2578a9782526009870154926101208901938452600160a01b60019003600a89015416946101408a01958652600b890154966101608b01978852600c8a0154986101808c01998a52600d8b01549a6101a08d019b8c52600e01549b6101c0019b8c526040519e8f9e8f9160208352516020830152600160a01b600190039051169060400152518d606081016101e090526102000161265c916127b8565b90518d8203601f190160808f015261267491906127b8565b90518c8203601f190160a08e015261268c91906127b8565b90518b8203601f190160c08d01526126a491906127b8565b985160e08b0152516101008a01525161012089016126c1916127dc565b51610140880152516001600160a01b031661016087015251610180860152516101a0850152516101c0840152516101e08301520390f35b3461218c575f36600319011261218c576020600b54604051908152f35b3461218c57602036600319011261218c57600435612731612a6f565b6014811161276a576020817f45610d581145924dd7090a5017e5f2b1d6f42213bb2e95707ff86846bbfcb1ca92600755604051908152a1005b60405162461bcd60e51b815260206004820152600c60248201526b08ccaca40e8dede40d0d2ced60a31b6044820152606490fd5b3461218c575f36600319011261218c57602090600a548152f35b805180835260209291819084018484015e5f828201840152601f01601f1916010190565b9060078210156121a25752565b6101e081019081106001600160401b0382111761280557604052565b634e487b7160e01b5f52604160045260245ffd5b61012081019081106001600160401b0382111761280557604052565b90601f801991011681019081106001600160401b0382111761280557604052565b6001600160401b03811161280557601f01601f191660200190565b81601f8201121561218c5780359061288882612856565b926128966040519485612835565b8284526020838301011161218c57815f926020809301838601378301015290565b600435906001600160a01b038216820361218c57565b60206040818301928281528451809452019201905f5b8181106128f05750505090565b82518452602093840193909201916001016128e3565b9060048210156121a25752565b8054821015612928575f5260205f2001905f90565b634e487b7160e01b5f52603260045260245ffd5b90600182811c9216801561296a575b602083101461295657565b634e487b7160e01b5f52602260045260245ffd5b91607f169161294b565b9060405191825f8254926129878461293c565b80845293600181169081156129f257506001146129ae575b506129ac92500383612835565b565b90505f9291925260205f20905f915b8183106129d65750509060206129ac928201015f61299f565b60209193508060019154838589010152019101909184926129bd565b9050602092506129ac94915060ff191682840152151560051b8201015f61299f565b80546801000000000000000081101561280557612a3691600182018155612913565b819291549060031b91821b915f19901b1916179055565b5f198114612a5b5760010190565b634e487b7160e01b5f52601160045260245ffd5b5f546001600160a01b03163303612a8257565b63118cdaa760e01b5f523360045260245ffd5b600260015414612aa6576002600155565b633ee5aeb560e01b5f5260045ffd5b5190811515820361218c57565b81601f8201121561218c57805190612ad982612856565b92612ae76040519485612835565b8284526020838301011161218c57815f9260208093018386015e8301015290565b9080601f8301121561218c578151916001600160401b038311612805578260051b9060405193612b3b6020840186612835565b84526020808501928201019183831161218c5760208201905b838210612b6357505050505090565b81516001600160401b03811161218c57602091612b8587848094880101612ac2565b815201910190612b54565b60208183031261218c578051906001600160401b03821161218c57016101e08183031261218c5760405191612bc4836127e9565b81516001600160a01b038116810361218c5783526020820151600281101561218c5760208401526040820151600481101561218c57604084015260608201516001600160401b03811161218c5781612c1d918401612ac2565b606084015260808201516001600160401b03811161218c5781612c41918401612ac2565b608084015260a08201516001600160401b03811161218c5781612c65918401612b08565b60a084015260c08201516001600160401b03811161218c5781612c89918401612ac2565b60c084015260e082015160e0840152610100820151610100840152610120820151610120840152612cbd6101408301612ab5565b6101408401526101608201516101608401526101808201516101808401526101a08201516001600160401b03811161218c5781612cfb918401612ac2565b6101a08401526101c08201516001600160401b03811161218c57612d1f9201612b08565b6101c08201529056fea2646970667358221220183a1cf8a230e5d326b8015aca76b6ac6656c736d6d5d309ce6e1748128e0d4a64736f6c634300081c0033",
  "linkReferences": {},
  "deployedLinkReferences": {},
  "immutableReferences": {
    "1887": [
      {
        "length": 32,
        "start": 1635
      },
      {
        "length": 32,
        "start": 4124
      },
      {
        "length": 32,
        "start": 8020
      },
      {
        "length": 32,
        "start": 8364
      }
    ],
    "1890": [
      {
        "length": 32,
        "start": 3677
      },
      {
        "length": 32,
        "start": 6483
      },
      {
        "length": 32,
        "start": 8241
      },
      {
        "length": 32,
        "start": 9093
      }
    ]
  },
  "inputSourceName": "project/contracts/ServiceMarketplace.sol",
  "buildInfoId": "solc-0_8_28-e93b01a4e1f3296f2d9f3fe37656035899aefbaf"
}