{
  "_format": "hh3-artifact-1",
  "contractName": "UserRegistry",
  "sourceName": "contracts/UserRegistry.sol",
  "abi": [
    {
      "inputs": [
        {
          "internalType": "address",
          "name": "initialOwner",
          "type": "address"
        },
        {
          "internalType": "address",
          "name": "worldIdVerifierAddress",
          "type": "address"
        }
      ],
      "stateMutability": "nonpayable",
      "type": "constructor"
    },
    {
      "inputs": [
        {
          "internalType": "string",
          "name": "name",
          "type": "string"
        }
      ],
      "name": "InvalidName",
      "type": "error"
    },
    {
      "inputs": [
        {
          "internalType": "uint256",
          "name": "rating",
          "type": "uint256"
        }
      ],
      "name": "InvalidRating",
      "type": "error"
    },
    {
      "inputs": [],
      "name": "InvalidUserType",
      "type": "error"
    },
    {
      "inputs": [
        {
          "internalType": "string",
          "name": "name",
          "type": "string"
        }
      ],
      "name": "NameAlreadyTaken",
      "type": "error"
    },
    {
      "inputs": [
        {
          "internalType": "address",
          "name": "owner",
          "type": "address"
        }
      ],
      "name": "OwnableInvalidOwner",
      "type": "error"
    },
    {
      "inputs": [
        {
          "internalType": "address",
          "name": "account",
          "type": "address"
        }
      ],
      "name": "OwnableUnauthorizedAccount",
      "type": "error"
    },
    {
      "inputs": [],
      "name": "ReentrancyGuardReentrantCall",
      "type": "error"
    },
    {
      "inputs": [],
      "name": "UnauthorizedAccess",
      "type": "error"
    },
    {
      "inputs": [
        {
          "internalType": "address",
          "name": "user",
          "type": "address"
        }
      ],
      "name": "UserAlreadyRegistered",
      "type": "error"
    },
    {
      "inputs": [
        {
          "internalType": "address",
          "name": "user",
          "type": "address"
        }
      ],
      "name": "UserBanned",
      "type": "error"
    },
    {
      "inputs": [
        {
          "internalType": "address",
          "name": "user",
          "type": "address"
        }
      ],
      "name": "UserNotRegistered",
      "type": "error"
    },
    {
      "inputs": [
        {
          "internalType": "address",
          "name": "user",
          "type": "address"
        }
      ],
      "name": "UserNotVerified",
      "type": "error"
    },
    {
      "inputs": [
        {
          "internalType": "address",
          "name": "user",
          "type": "address"
        }
      ],
      "name": "UserSuspended",
      "type": "error"
    },
    {
      "inputs": [
        {
          "internalType": "address",
          "name": "user",
          "type": "address"
        }
      ],
      "name": "WorldIdNotVerified",
      "type": "error"
    },
    {
      "anonymous": false,
      "inputs": [
        {
          "indexed": false,
          "internalType": "address",
          "name": "newRecipient",
          "type": "address"
        }
      ],
      "name": "FeeRecipientUpdated",
      "type": "event"
    },
    {
      "anonymous": false,
      "inputs": [
        {
          "indexed": true,
          "internalType": "address",
          "name": "previousOwner",
          "type": "address"
        },
        {
          "indexed": true,
          "internalType": "address",
          "name": "newOwner",
          "type": "address"
        }
      ],
      "name": "OwnershipTransferred",
      "type": "event"
    },
    {
      "anonymous": false,
      "inputs": [
        {
          "indexed": false,
          "internalType": "uint256",
          "name": "newFee",
          "type": "uint256"
        }
      ],
      "name": "RegistrationFeeUpdated",
      "type": "event"
    },
    {
      "anonymous": false,
      "inputs": [
        {
          "indexed": true,
          "internalType": "address",
          "name": "user",
          "type": "address"
        },
        {
          "indexed": false,
          "internalType": "string",
          "name": "name",
          "type": "string"
        },
        {
          "indexed": false,
          "internalType": "string",
          "name": "description",
          "type": "string"
        }
      ],
      "name": "UserProfileUpdated",
      "type": "event"
    },
    {
      "anonymous": false,
      "inputs": [
        {
          "indexed": true,
          "internalType": "address",
          "name": "user",
          "type": "address"
        },
        {
          "indexed": false,
          "internalType": "uint256",
          "name": "newRating",
          "type": "uint256"
        },
        {
          "indexed": false,
          "internalType": "uint256",
          "name": "totalJobs",
          "type": "uint256"
        }
      ],
      "name": "UserRatingUpdated",
      "type": "event"
    },
    {
      "anonymous": false,
      "inputs": [
        {
          "indexed": true,
          "internalType": "address",
          "name": "user",
          "type": "address"
        },
        {
          "indexed": false,
          "internalType": "enum UserRegistry.UserType",
          "name": "userType",
          "type": "uint8"
        },
        {
          "indexed": false,
          "internalType": "string",
          "name": "name",
          "type": "string"
        },
        {
          "indexed": false,
          "internalType": "bool",
          "name": "isVerified",
          "type": "bool"
        }
      ],
      "name": "UserRegistered",
      "type": "event"
    },
    {
      "anonymous": false,
      "inputs": [
        {
          "indexed": true,
          "internalType": "address",
          "name": "user",
          "type": "address"
        },
        {
          "indexed": false,
          "internalType": "enum UserRegistry.UserStatus",
          "name": "oldStatus",
          "type": "uint8"
        },
        {
          "indexed": false,
          "internalType": "enum UserRegistry.UserStatus",
          "name": "newStatus",
          "type": "uint8"
        }
      ],
      "name": "UserStatusChanged",
      "type": "event"
    },
    {
      "inputs": [
        {
          "internalType": "address",
          "name": "user",
          "type": "address"
        },
        {
          "internalType": "enum UserRegistry.UserStatus",
          "name": "newStatus",
          "type": "uint8"
        }
      ],
      "name": "changeUserStatus",
      "outputs": [],
      "stateMutability": "nonpayable",
      "type": "function"
    },
    {
      "inputs": [],
      "name": "feeRecipient",
      "outputs": [
        {
          "internalType": "address",
          "name": "",
          "type": "address"
        }
      ],
      "stateMutability": "view",
      "type": "function"
    },
    {
      "inputs": [
        {
          "internalType": "string",
          "name": "skill",
          "type": "string"
        }
      ],
      "name": "getServiceProvidersBySkill",
      "outputs": [
        {
          "internalType": "address[]",
          "name": "",
          "type": "address[]"
        }
      ],
      "stateMutability": "view",
      "type": "function"
    },
    {
      "inputs": [
        {
          "internalType": "address",
          "name": "user",
          "type": "address"
        }
      ],
      "name": "getUserProfile",
      "outputs": [
        {
          "components": [
            {
              "internalType": "address",
              "name": "userAddress",
              "type": "address"
            },
            {
              "internalType": "enum UserRegistry.UserType",
              "name": "userType",
              "type": "uint8"
            },
            {
              "internalType": "enum UserRegistry.UserStatus",
              "name": "status",
              "type": "uint8"
            },
            {
              "internalType": "string",
              "name": "name",
              "type": "string"
            },
            {
              "internalType": "string",
              "name": "description",
              "type": "string"
            },
            {
              "internalType": "string[]",
              "name": "skills",
              "type": "string[]"
            },
            {
              "internalType": "string",
              "name": "location",
              "type": "string"
            },
            {
              "internalType": "uint256",
              "name": "rating",
              "type": "uint256"
            },
            {
              "internalType": "uint256",
              "name": "totalJobs",
              "type": "uint256"
            },
            {
              "internalType": "uint256",
              "name": "totalEarnings",
              "type": "uint256"
            },
            {
              "internalType": "bool",
              "name": "isVerified",
              "type": "bool"
            },
            {
              "internalType": "uint256",
              "name": "createdAt",
              "type": "uint256"
            },
            {
              "internalType": "uint256",
              "name": "lastActiveAt",
              "type": "uint256"
            },
            {
              "internalType": "string",
              "name": "profileImageHash",
              "type": "string"
            },
            {
              "internalType": "string[]",
              "name": "certifications",
              "type": "string[]"
            }
          ],
          "internalType": "struct UserRegistry.UserProfile",
          "name": "",
          "type": "tuple"
        }
      ],
      "stateMutability": "view",
      "type": "function"
    },
    {
      "inputs": [
        {
          "internalType": "enum UserRegistry.UserType",
          "name": "userType",
          "type": "uint8"
        }
      ],
      "name": "getUsersByType",
      "outputs": [
        {
          "internalType": "address[]",
          "name": "",
          "type": "address[]"
        }
      ],
      "stateMutability": "view",
      "type": "function"
    },
    {
      "inputs": [
        {
          "internalType": "address",
          "name": "",
          "type": "address"
        }
      ],
      "name": "isRegistered",
      "outputs": [
        {
          "internalType": "bool",
          "name": "",
          "type": "bool"
        }
      ],
      "stateMutability": "view",
      "type": "function"
    },
    {
      "inputs": [
        {
          "internalType": "address",
          "name": "user",
          "type": "address"
        }
      ],
      "name": "isUserActiveAndVerified",
      "outputs": [
        {
          "internalType": "bool",
          "name": "",
          "type": "bool"
        }
      ],
      "stateMutability": "view",
      "type": "function"
    },
    {
      "inputs": [
        {
          "internalType": "string",
          "name": "",
          "type": "string"
        }
      ],
      "name": "nameToAddress",
      "outputs": [
        {
          "internalType": "address",
          "name": "",
          "type": "address"
        }
      ],
      "stateMutability": "view",
      "type": "function"
    },
    {
      "inputs": [],
      "name": "owner",
      "outputs": [
        {
          "internalType": "address",
          "name": "",
          "type": "address"
        }
      ],
      "stateMutability": "view",
      "type": "function"
    },
    {
      "inputs": [
        {
          "internalType": "string",
          "name": "name",
          "type": "string"
        },
        {
          "internalType": "string",
          "name": "description",
          "type": "string"
        },
        {
          "internalType": "string",
          "name": "location",
          "type": "string"
        },
        {
          "internalType": "string[]",
          "name": "skills",
          "type": "string[]"
        },
        {
          "internalType": "string",
          "name": "profileImageHash",
          "type": "string"
        },
        {
          "internalType": "string[]",
          "name": "certifications",
          "type": "string[]"
        }
      ],
      "name": "registerServiceProvider",
      "outputs": [],
      "stateMutability": "payable",
      "type": "function"
    },
    {
      "inputs": [
        {
          "internalType": "string",
          "name": "name",
          "type": "string"
        },
        {
          "internalType": "string",
          "name": "description",
          "type": "string"
        },
        {
          "internalType": "string",
          "name": "location",
          "type": "string"
        },
        {
          "internalType": "string",
          "name": "profileImageHash",
          "type": "string"
        }
      ],
      "name": "registerServiceSeeker",
      "outputs": [],
      "stateMutability": "payable",
      "type": "function"
    },
    {
      "inputs": [],
      "name": "registrationFee",
      "outputs": [
        {
          "internalType": "uint256",
          "name": "",
          "type": "uint256"
        }
      ],
      "stateMutability": "view",
      "type": "function"
    },
    {
      "inputs": [],
      "name": "renounceOwnership",
      "outputs": [],
      "stateMutability": "nonpayable",
      "type": "function"
    },
    {
      "inputs": [
        {
          "internalType": "address",
          "name": "newRecipient",
          "type": "address"
        }
      ],
      "name": "setFeeRecipient",
      "outputs": [],
      "stateMutability": "nonpayable",
      "type": "function"
    },
    {
      "inputs": [
        {
          "internalType": "uint256",
          "name": "newFee",
          "type": "uint256"
        }
      ],
      "name": "setRegistrationFee",
      "outputs": [],
      "stateMutability": "nonpayable",
      "type": "function"
    },
    {
      "inputs": [
        {
          "internalType": "address",
          "name": "newOwner",
          "type": "address"
        }
      ],
      "name": "transferOwnership",
      "outputs": [],
      "stateMutability": "nonpayable",
      "type": "function"
    },
    {
      "inputs": [
        {
          "internalType": "string",
          "name": "newName",
          "type": "string"
        },
        {
          "internalType": "string",
          "name": "newDescription",
          "type": "string"
        },
        {
          "internalType": "string",
          "name": "newLocation",
          "type": "string"
        },
        {
          "internalType": "string",
          "name": "newProfileImageHash",
          "type": "string"
        }
      ],
      "name": "updateProfile",
      "outputs": [],
      "stateMutability": "nonpayable",
      "type": "function"
    },
    {
      "inputs": [
        {
          "internalType": "address",
          "name": "user",
          "type": "address"
        },
        {
          "internalType": "uint256",
          "name": "newRating",
          "type": "uint256"
        },
        {
          "internalType": "uint256",
          "name": "jobValue",
          "type": "uint256"
        }
      ],
      "name": "updateRating",
      "outputs": [],
      "stateMutability": "nonpayable",
      "type": "function"
    },
    {
      "inputs": [
        {
          "internalType": "string[]",
          "name": "newSkills",
          "type": "string[]"
        }
      ],
      "name": "updateSkills",
      "outputs": [],
      "stateMutability": "nonpayable",
      "type": "function"
    },
    {
      "inputs": [
        {
          "internalType": "address",
          "name": "",
          "type": "address"
        }
      ],
      "name": "userProfiles",
      "outputs": [
        {
          "internalType": "address",
          "name": "userAddress",
          "type": "address"
        },
        {
          "internalType": "enum UserRegistry.UserType",
          "name": "userType",
          "type": "uint8"
        },
        {
          "internalType": "enum UserRegistry.UserStatus",
          "name": "status",
          "type": "uint8"
        },
        {
          "internalType": "string",
          "name": "name",
          "type": "string"
        },
        {
          "internalType": "string",
          "name": "description",
          "type": "string"
        },
        {
          "internalType": "string",
          "name": "location",
          "type": "string"
        },
        {
          "internalType": "uint256",
          "name": "rating",
          "type": "uint256"
        },
        {
          "internalType": "uint256",
          "name": "totalJobs",
          "type": "uint256"
        },
        {
          "internalType": "uint256",
          "name": "totalEarnings",
          "type": "uint256"
        },
        {
          "internalType": "bool",
          "name": "isVerified",
          "type": "bool"
        },
        {
          "internalType": "uint256",
          "name": "createdAt",
          "type": "uint256"
        },
        {
          "internalType": "uint256",
          "name": "lastActiveAt",
          "type": "uint256"
        },
        {
          "internalType": "string",
          "name": "profileImageHash",
          "type": "string"
        }
      ],
      "stateMutability": "view",
      "type": "function"
    },
    {
      "inputs": [
        {
          "internalType": "enum UserRegistry.UserType",
          "name": "",
          "type": "uint8"
        },
        {
          "internalType": "uint256",
          "name": "",
          "type": "uint256"
        }
      ],
      "name": "usersByType",
      "outputs": [
        {
          "internalType": "address",
          "name": "",
          "type": "address"
        }
      ],
      "stateMutability": "view",
      "type": "function"
    },
    {
      "inputs": [],
      "name": "worldIdVerifier",
      "outputs": [
        {
          "internalType": "contract WorldIDVerifier",
          "name": "",
          "type": "address"
        }
      ],
      "stateMutability": "view",
      "type": "function"
    }
  ],
  "bytecode": "0x60a03461010757601f61359c38819003918201601f19168301916001600160401b0383118484101761010b57808492604094855283398101031261010757610052602061004b8361011f565b920161011f565b906001600160a01b031680156100f4575f80546001600160a01b0319811683178255604051939183916001600160a01b0316907f8be0079c531659141344cd1fd0a4f28419497f9722a3daafe3b4186f6b6457e09080a3600180555f6006556001600160a01b0316608052600780546001600160a01b031916919091179055613468908161013482396080518181816101c901528181610f71015261270f0152f35b631e4fbdf760e01b5f525f60045260245ffd5b5f80fd5b634e487b7160e01b5f52604160045260245ffd5b51906001600160a01b03821682036101075756fe60806040526004361015610011575f80fd5b5f3560e01c8062c5fd2414612c9c57806308d88aad14612c3b578063107a53a514612bbb57806314c44e0914612b9e5780631ebf9366146128b3578063332d56d71461273e57806334604a2d146126fa5780633d3871c714612457578063469048401461242f5780634d90d833146123d857806357a1c5e914612247578063715018a6146121f05780638da5cb5b146121c95780639483f25c14611ba8578063987ee156146118a8578063baf97ed714610e7b578063c320c72714610e2f578063c3c5a54714610df2578063c5da995914610ca1578063e74b981b14610bf7578063e8d22d13146101935763f2fde38b1461010a575f80fd5b3461018f57602036600319011261018f57610123612d4f565b61012b613276565b6001600160a01b0316801561017c575f80546001600160a01b03198116831782556001600160a01b0316907f8be0079c531659141344cd1fd0a4f28419497f9722a3daafe3b4186f6b6457e09080a3005b631e4fbdf760e01b5f525f60045260245ffd5b5f80fd5b61019c36613005565b6101a461329c565b6101ae84336132bc565b60405163056720bf60e51b81523360048201526020816024817f00000000000000000000000000000000000000000000000000000000000000006001600160a01b03165afa908115610bec575f91610bbd575b5015610baa5761020f61336b565b610217613243565b91610220613243565b9360405193849261023084612d65565b33845260208401925f845260408501926001845260608601928a84526080870192835260a0870191825260c0870190815260e08701915f83526101008801935f85526101208901955f87526101408a0197600189526101608b0199428b526101c06101808d019c8d4290526101a081019e8f52019e8f52335f52600260205260405f20809e60018060a01b039060018060a01b03905116166001600160601b0360a01b825416179055516002811015610b96578d5460ff60a01b191660a09190911b60ff60a01b16178d55516004811015610b965761030f908d6130e8565b51805160018d01916001600160401b0382116107165761032f8354612e39565b601f8111610b66575b50602090601f8311600114610b035761036892915f9183610955575b50508160011b915f199060031b1c19161790565b90555b51805160028c01916001600160401b0382116107165761038b8354612e39565b601f8111610ad3575b50602090601f8311600114610a70576103c392915f91836109555750508160011b915f199060031b1c19161790565b90555b51805160038b0191600160401b82116107165782548284558083106109f9575b50602001915f5260205f20915f905b8282106108e957505050506004890190518051906001600160401b038211610716576104218354612e39565b601f81116108b9575b50602090601f831160011461084e5791806104629261048f9998979695945f926108435750508160011b915f199060031b1c19161790565b90555b516005890155516006880155516007870155511515600886019060ff801983541691151516179055565b51600984015551600a830155518051600b8301916001600160401b038211610716576104bb8354612e39565b601f8111610813575b50602090601f83116001146107ac5791806104f892600c9695945f926107a15750508160011b915f199060031b1c19161790565b90555b019051805190600160401b821161071657825482845580831061072a575b50602001915f5260205f20915f905b8282106105fb575f8052600360205284610562337f3617319a054d772f909f7c479a2cebe5066e836a939412e32403c99029b92eff6131f5565b604051602081835180838601835e8101600481520301902060018060a01b0333166001600160601b0360a01b825416179055335f52600560205260405f20600160ff198254161790557f21bd3b76261a54ff492c5eb954f3a34b2d57f7530f065216bbc86735031546936105e7604051925f8452606060208501526060840190612f0c565b91600160408201528033930390a260018055005b80518051906001600160401b038211610716576106188654612e39565b601f81116106db575b50602090601f83116001146106725792610658836001959460209487965f926106675750508160011b915f199060031b1c19161790565b87555b01940191019092610528565b015190508b80610354565b90601f19831691875f52815f20925f5b8181106106c357509360209360019693879693838895106106ab575b505050811b01875561065b565b01515f1960f88460031b161c191690558a808061069e565b92936020600181928786015181550195019301610682565b61070690875f5260205f20601f850160051c8101916020861061070c575b601f0160051c01906131c7565b87610621565b90915081906106f9565b634e487b7160e01b5f52604160045260245ffd5b835f528260205f2091820191015b8181106107455750610519565b8061075260019254612e39565b8061075f575b5001610738565b601f8111831461077457505f81555b87610758565b61079090825f5283601f60205f20920160051c820191016131c7565b805f525f602081208183555561076e565b015190508880610354565b90601f19831691845f52815f20925f5b8181106107fb5750916001939185600c98979694106107e3575b505050811b0190556104fb565b01515f1960f88460031b161c191690558780806107d6565b929360206001819287860151815501950193016107bc565b61083d90845f5260205f20601f850160051c8101916020861061070c57601f0160051c01906131c7565b866104c4565b015190508f80610354565b90601f19831691845f52815f20925f5b8181106108a1575091600193918561048f9b9a999897969410610889575b505050811b019055610465565b01515f1960f88460031b161c191690558e808061087c565b9293602060018192878601518155019501930161085e565b6108e390845f5260205f20601f850160051c8101916020861061070c57601f0160051c01906131c7565b8d61042a565b80518051906001600160401b038211610716576109068654612e39565b601f81116109c9575b50602090601f83116001146109605792610946836001959460209487965f926109555750508160011b915f199060031b1c19161790565b87555b019401910190926103f5565b015190505f80610354565b90601f19831691875f52815f20925f5b8181106109b15750936020936001969387969383889510610999575b505050811b018755610949565b01515f1960f88460031b161c191690555f808061098c565b92936020600181928786015181550195019301610970565b6109f390875f5260205f20601f850160051c8101916020861061070c57601f0160051c01906131c7565b5f61090f565b835f528260205f2091820191015b818110610a1457506103e6565b80610a2160019254612e39565b80610a2e575b5001610a07565b601f81118314610a4357505f81555b5f610a27565b610a5f90825f5283601f60205f20920160051c820191016131c7565b805f525f6020812081835555610a3d565b90601f19831691845f52815f20925f5b818110610abb5750908460019594939210610aa3575b505050811b0190556103c6565b01515f1960f88460031b161c191690558f8080610a96565b92936020600181928786015181550195019301610a80565b610afd90845f5260205f20601f850160051c8101916020861061070c57601f0160051c01906131c7565b8f610394565b90601f19831691845f52815f20925f5b818110610b4e5750908460019594939210610b36575b505050811b01905561036b565b01515f1960f88460031b161c191690555f8080610b29565b92936020600181928786015181550195019301610b13565b610b9090845f5260205f20601f850160051c8101916020861061070c57601f0160051c01906131c7565b5f610338565b634e487b7160e01b5f52602160045260245ffd5b63551ead0360e11b5f523360045260245ffd5b610bdf915060203d602011610be5575b610bd78183612d81565b8101906131dd565b85610201565b503d610bcd565b6040513d5f823e3d90fd5b3461018f57602036600319011261018f57610c10612d4f565b610c18613276565b6001600160a01b03168015610c68576020817f7a7b5a0a132f9e0581eb8527f66eae9ee89c2a3e79d4ac7e41a1f1f4d48a7fc2926001600160601b0360a01b6007541617600755604051908152a1005b60405162461bcd60e51b8152602060048201526011602482015270125b9d985b1a59081c9958da5c1a595b9d607a1b6044820152606490fd5b3461018f57606036600319011261018f57610cba612d4f565b60243590610cc6613276565b60018060a01b031690815f52600260205260405f2090825f52600560205260ff60405f20541615610ddf5760648111610dcd5760058201805491600684019081549384810290808204861490151715610db95760018501809511610db95784610d2f9355613236565b8215610da55782900480915560ff835460a01c16916002831015610b96577f4fdd7b65b6a63cf2a80b6ea2d97c06e1410cf8b07a0dde53f160590ea4e972d893600160409414610d8d575b600a4291015582519182526020820152a2005b60078101610d9e6044358254613236565b9055610d7a565b634e487b7160e01b5f52601260045260245ffd5b634e487b7160e01b5f52601160045260245ffd5b63088e5a3960e01b5f5260045260245ffd5b82635713986560e11b5f5260045260245ffd5b3461018f57602036600319011261018f576001600160a01b03610e13612d4f565b165f526005602052602060ff60405f2054166040519015158152f35b3461018f57602036600319011261018f577fb120d26fad0e7bd128060711a484693f1283b8143bf94bde9df9b13217aa48366020600435610e6e613276565b80600655604051908152a1005b60c036600319011261018f576004356001600160401b03811161018f57610ea6903690600401612da2565b6024356001600160401b03811161018f57610ec5903690600401612da2565b6044356001600160401b03811161018f57610ee4903690600401612da2565b6064356001600160401b03811161018f57610f03903690600401612f47565b906084356001600160401b03811161018f57610f23903690600401612da2565b9060a4356001600160401b03811161018f57610f43903690600401612f47565b93610f4c61329c565b610f5686336132bc565b60405163056720bf60e51b81523360048201526020816024817f00000000000000000000000000000000000000000000000000000000000000006001600160a01b03165afa908115610bec575f91611889575b5015610baa57610fb761336b565b604051938492610fc684612d65565b33845260208401926001845260408501926001845260608601928a84526080870192835260a0870191825260c0870190815260e08701915f83526101008801935f85526101208901955f87526101408a0197600189526101608b0199428b526101c06101808d019c8d4290526101a081019e8f52019e8f52335f52600260205260405f20809e60018060a01b039060018060a01b03905116166001600160601b0360a01b825416179055516002811015610b96578d5460ff60a01b191660a09190911b60ff60a01b16178d55516004811015610b96576110a6908d6130e8565b51805160018d01916001600160401b038211610716576110c68354612e39565b601f8111611859575b50602090601f83116001146117f6576110fe92915f91836109555750508160011b915f199060031b1c19161790565b90555b51805160028c01916001600160401b038211610716576111218354612e39565b601f81116117c6575b50602090601f83116001146117635761115992915f91836109555750508160011b915f199060031b1c19161790565b90555b51805160038b0191600160401b82116107165782548284558083106116ec575b50602001915f5260205f20915f905b8282106115e757505050506004890190518051906001600160401b038211610716576111b78354612e39565b601f81116115b7575b50602090601f8311600114611565579180610462926111f89998979695945f926108435750508160011b915f199060031b1c19161790565b51600984015551600a830155518051600b8301916001600160401b038211610716576112248354612e39565b601f8111611535575b50602090601f83116001146114ce57918061126192600c9695945f926107a15750508160011b915f199060031b1c19161790565b90555b019051805190600160401b8211610716578254828455808310611457575b50602001915f5260205f20915f905b8282106113525760015f526003602052846112cc337fa15bc60c955c405d20d9149c709e2460f1c2d9a497496a7f46004d1772c3054c6131f5565b604051602081835180838601835e8101600481520301902060018060a01b0333166001600160601b0360a01b825416179055335f52600560205260405f20600160ff198254161790557f21bd3b76261a54ff492c5eb954f3a34b2d57f7530f065216bbc86735031546936105e76040519260018452606060208501526060840190612f0c565b80518051906001600160401b0382116107165761136f8654612e39565b601f8111611427575b50602090601f83116001146113be57926113af836001959460209487965f926106675750508160011b915f199060031b1c19161790565b87555b01940191019092611291565b90601f19831691875f52815f20925f5b81811061140f57509360209360019693879693838895106113f7575b505050811b0187556113b2565b01515f1960f88460031b161c191690558a80806113ea565b929360206001819287860151815501950193016113ce565b61145190875f5260205f20601f850160051c8101916020861061070c57601f0160051c01906131c7565b87611378565b835f528260205f2091820191015b8181106114725750611282565b8061147f60019254612e39565b8061148c575b5001611465565b601f811183146114a157505f81555b87611485565b6114bd90825f5283601f60205f20920160051c820191016131c7565b805f525f602081208183555561149b565b90601f19831691845f52815f20925f5b81811061151d5750916001939185600c9897969410611505575b505050811b019055611264565b01515f1960f88460031b161c191690558780806114f8565b929360206001819287860151815501950193016114de565b61155f90845f5260205f20601f850160051c8101916020861061070c57601f0160051c01906131c7565b8661122d565b90601f19831691845f52815f20925f5b81811061159f57509160019391856111f89b9a99989796941061088957505050811b019055610465565b92936020600181928786015181550195019301611575565b6115e190845f5260205f20601f850160051c8101916020861061070c57601f0160051c01906131c7565b8d6111c0565b80518051906001600160401b038211610716576116048654612e39565b601f81116116bc575b50602090601f83116001146116535792611644836001959460209487965f926109555750508160011b915f199060031b1c19161790565b87555b0194019101909261118b565b90601f19831691875f52815f20925f5b8181106116a4575093602093600196938796938388951061168c575b505050811b018755611647565b01515f1960f88460031b161c191690555f808061167f565b92936020600181928786015181550195019301611663565b6116e690875f5260205f20601f850160051c8101916020861061070c57601f0160051c01906131c7565b5f61160d565b835f528260205f2091820191015b818110611707575061117c565b8061171460019254612e39565b80611721575b50016116fa565b601f8111831461173657505f81555b5f61171a565b61175290825f5283601f60205f20920160051c820191016131c7565b805f525f6020812081835555611730565b90601f19831691845f52815f20925f5b8181106117ae5750908460019594939210611796575b505050811b01905561115c565b01515f1960f88460031b161c191690558f8080611789565b92936020600181928786015181550195019301611773565b6117f090845f5260205f20601f850160051c8101916020861061070c57601f0160051c01906131c7565b8f61112a565b90601f19831691845f52815f20925f5b8181106118415750908460019594939210611829575b505050811b019055611101565b01515f1960f88460031b161c191690555f808061181c565b92936020600181928786015181550195019301611806565b61188390845f5260205f20601f850160051c8101916020861061070c57601f0160051c01906131c7565b5f6110cf565b6118a2915060203d602011610be557610bd78183612d81565b87610fa9565b3461018f57602036600319011261018f576118c1612d4f565b6040516118cd81612d65565b5f8152602081015f9052604081015f90526060810160609052608081016060905260a081016060905260c081016060905260e081015f905261010081015f905261012081015f905261014081015f905261016081015f905261018081015f90526101a08101606090526101c00160609052600160a01b60019003165f52600260205260405f206040519061196082612d65565b80546001600160a01b038116835291602081019161198560ff60a086901c1684613152565b604082019360a81c60ff1661199a908561315e565b60405190816119ac8160018401612e71565b036119b79083612d81565b6060830191825260405191826119d08160028501612e71565b036119db9084612d81565b608084019283526119ee6003830161316a565b60a08501908152604051939084611a088160048701612e71565b03611a139086612d81565b60c0860194855260058401549460e08701958652600685015461010088019081526007860154916101208901928352600887015460ff16936101408a0194151585526009880154956101608b01968752600a890154976101808c01988952604051998a80600b830190611a8591612e71565b03611a90908c612d81565b6101a08d019a8b52600c01611aa49061316a565b9b6101c081019c8d526040519e8f9e8f9260208452600160a01b6001900390511660208401525160408301611ad891612ef2565b5190606001611ae691612eff565b5160808d016101e090526102008d01611afe91612f0c565b90518c8203601f190160a08e0152611b169190612f0c565b90518b8203601f190160c08d0152611b2e9190613090565b90518a8203601f190160e08c0152611b469190612f0c565b96516101008a0152516101208901525161014088015251151561016087015251610180860152516101a085015251838203601f19016101c0850152611b8b9190612f0c565b9051828203601f19016101e0840152611ba49190613090565b0390f35b3461018f57611bb636613005565b611bc193929361329c565b335f52600260205260405f2091335f52600560205260ff60405f205416156121b65760ff835460a81c166004811015610b9657600281146121a3576003146121905760018301604051611c1f81611c188185612e71565b0382612d81565b602081519101208551602087019181832003612084575b505084516001600160401b03811161071657611c528254612e39565b601f8111612054575b506020601f8211600114611ff4579080611c89925f91611fe9575b508160011b915f199060031b1c19161790565b90555b6002830185516001600160401b03811161071657611caa8254612e39565b601f8111611fb9575b506020601f8211600114611f57579080611ce0925f91611f4c57508160011b915f199060031b1c19161790565b90555b805160048401916001600160401b03821161071657611d028354612e39565b601f8111611f1c575b50602090601f8311600114611eb957611d3a92915f91836107a15750508160011b915f199060031b1c19161790565b90555b8051600b8301916001600160401b03821161071657611d5c8354612e39565b601f8111611e89575b50602090601f8311600114611dff5782611ddc95937fc13dafd9d9a1258e2f2de748cef0b799dbcc614ed620f5b0564ae615a759795c979593611dbc935f92611df45750508160011b915f199060031b1c19161790565b90555b600a42910155611deb604051928392604084526040840190612f0c565b82810360208401523395612f0c565b0390a260018055005b015190508980610354565b90601f19831691845f52815f20925f5b818110611e715750926001928592611ddc98967fc13dafd9d9a1258e2f2de748cef0b799dbcc614ed620f5b0564ae615a759795c9a989610611e59575b505050811b019055611dbf565b01515f1960f88460031b161c19169055888080611e4c565b92936020600181928786015181550195019301611e0f565b611eb390845f5260205f20601f850160051c8101916020861061070c57601f0160051c01906131c7565b86611d65565b90601f19831691845f52815f20925f5b818110611f045750908460019594939210611eec575b505050811b019055611d3d565b01515f1960f88460031b161c19169055878080611edf565b92936020600181928786015181550195019301611ec9565b611f4690845f5260205f20601f850160051c8101916020861061070c57601f0160051c01906131c7565b87611d0b565b905088015189611c76565b601f19821690835f52805f20915f5b8a828210611fa15750509083600194939210611f89575b5050811b019055611ce3565b8901515f1960f88460031b161c191690558880611f7d565b60018495602093958493015181550194019201611f66565b611fe390835f5260205f20601f840160051c8101916020851061070c57601f0160051c01906131c7565b87611cb3565b905087015189611c76565b601f19821690835f52805f20915f5b81811061203c57509083600194939210612024575b5050811b019055611c8c565b8801515f1960f88460031b161c191690558880612018565b9192602060018192868d015181550194019201612003565b61207e90835f5260205f20601f840160051c8101916020851061070c57601f0160051c01906131c7565b87611c5b565b604051908083835e60049082019081528190036020019020546001600160a01b031661216a576040518254815f6120ba83612e39565b9260018116908115612153575060011461211b575b6020925060048152030190206001600160601b0360a01b81541690556020604051809288518091835e60049082019081520301902080546001600160a01b031916331790558680611c36565b5050835f528160205f205f905b83821061213b57505060209181016120cf565b60209192508060019154848701520191018391612128565b60ff191683525060209280151502820190506120cf565b604051636458ffe560e11b8152602060048201528061218c6024820189612f0c565b0390fd5b6347a08d6b60e11b5f523360045260245ffd5b63904d198560e01b5f523360045260245ffd5b635713986560e11b5f523360045260245ffd5b3461018f575f36600319011261018f575f546040516001600160a01b039091168152602090f35b3461018f575f36600319011261018f57612208613276565b5f80546001600160a01b0319811682556001600160a01b03167f8be0079c531659141344cd1fd0a4f28419497f9722a3daafe3b4186f6b6457e08280a3005b3461018f57602036600319011261018f576001600160a01b03612268612d4f565b16805f52600260205260405f20906040519061228382612d65565b82546001600160a01b0381168352916122a660a084901c60ff1660208301613152565b6122ba60ff604083019460a81c168461315e565b6040516122ce81611c188160018901612e71565b60608201526040516122e781611c188160028901612e71565b60808201526122f86003850161316a565b60a082015260405161231181611c188160048901612e71565b60c0820152600584015460e0820152600684015461010082015260078401546101208201526101c0612387600c60ff60088801541696610140850197151588526009810154610160860152600a81015461018086015260405161237b81611c1881600b8601612e71565b6101a08601520161316a565b9101525f52600560205260ff60405f20541690816123c0575b50602091816123b5575b506040519015158152f35b9050511515826123aa565b905051906004821015610b96579060011460206123a0565b3461018f57604036600319011261018f57600435600281101561018f5761240160243591612fc5565b805482101561018f5760209161241691612fdc565b905460405160039290921b1c6001600160a01b03168152f35b3461018f575f36600319011261018f576007546040516001600160a01b039091168152602090f35b3461018f57602036600319011261018f576004356001600160401b03811161018f57612487903690600401612f47565b335f52600260205260405f2090335f52600560205260ff60405f205416156121b657815460ff8160a01c166002811015610b96576001036126eb5760a81c60ff166004811015610b9657600281146121a3576003146121905780516003830191600160401b8211610716578254828455808310612674575b50602001915f5260205f20915f905b82821061256f578442600a8201557fc13dafd9d9a1258e2f2de748cef0b799dbcc614ed620f5b0564ae615a759795c604051604081528061256a6125586040830160018701612e71565b82810360208401526002339601612e71565b0390a2005b80518051906001600160401b0382116107165761258c8654612e39565b601f8111612644575b50602090601f83116001146125db57926125cc836001959460209487965f926106675750508160011b915f199060031b1c19161790565b87555b0194019101909261250e565b90601f19831691875f52815f20925f5b81811061262c5750936020936001969387969383889510612614575b505050811b0187556125cf565b01515f1960f88460031b161c191690558a8080612607565b929360206001819287860151815501950193016125eb565b61266e90875f5260205f20601f850160051c8101916020861061070c57601f0160051c01906131c7565b87612595565b835f528260205f2091820191015b81811061268f57506124ff565b8061269c60019254612e39565b806126a9575b5001612682565b601f811183146126be57505f81555b876126a2565b6126da90825f5283601f60205f20920160051c820191016131c7565b805f525f60208120818355556126b8565b63125619a960e31b5f5260045ffd5b3461018f575f36600319011261018f576040517f00000000000000000000000000000000000000000000000000000000000000006001600160a01b03168152602090f35b3461018f57602036600319011261018f576001600160a01b0361275f612d4f565b165f52600260205260405f208054604051918280600183019061278191612e71565b0361278c9084612d81565b6040518061279d8160028501612e71565b036127a89082612d81565b60405190816127ba8160048601612e71565b036127c59083612d81565b60058301549160068401546007850154600886015460ff1691600987015493600a8801549560405180600b819b01906127fd91612e71565b03612808908a612d81565b6040516001600160a01b038b1681529a8b9a61282e60208d0160ff60a084901c16612ef2565b60408c019060a81c60ff169061284391612eff565b60608b016101a090526101a08b0161285a91612f0c565b8a810360808c015261286b91612f0c565b89810360a08b015261287c91612f0c565b9560c089015260e08801526101008701521515610120860152610140850152610160840152828103610180840152611ba491612f0c565b3461018f57602036600319011261018f576004356001600160401b03811161018f576128e3903690600401612da2565b600360209081526040517fa15bc60c955c405d20d9149c709e2460f1c2d9a497496a7f46004d1772c3054c80548083525f91825291927f2c644dcf44e265ba93879b2da89e1b16ab48fc5eb8e31bc16b0612d6da8463f1928492918301915b818110612b7c57505061295792500382612d81565b612961815161310c565b915f925f5b8351811015612b31576001600160a01b03612981828661313e565b51165f52600260205260405f2060405161299a81612d65565b81546001600160a01b0381168252906129bd60a083901c60ff1660208301613152565b6129d160ff604083019360a81c168361315e565b6040516129e581611c188160018801612e71565b60608201526040516129fe81611c188160028801612e71565b60808201526101c0612a92600c612a176003870161316a565b9560a08501968752604051612a3381611c188160048601612e71565b60c0860152600581015460e08601526006810154610100860152600781015461012086015260ff60088201541615156101408601526009810154610160860152600a81015461018086015260405161237b81611c1881600b8601612e71565b910152516004811015610b9657600114612ab0575b50600101612966565b939092602081015f5b86518051821015612b235781612ace9161313e565b51602081519101208351832014612ae757600101612ab9565b50939591945092506001600160a01b03612b01868661313e565b5116612b0d828461313e565b525f198114610db9576001809101945b90612aa7565b505050926001919450612b1d565b5083612b3c8161310c565b915f5b828110612b545760405180611ba48682612df7565b6001906001600160a01b03612b69828561313e565b5116612b75828761313e565b5201612b3f565b84546001600160a01b0316835260019485019486945060209093019201612942565b3461018f575f36600319011261018f576020600654604051908152f35b3461018f57602036600319011261018f57600435600281101561018f57612be190612fc5565b6040519081602082549182815201915f5260205f20905f5b818110612c1c57611ba485612c1081870382612d81565b60405191829182612df7565b82546001600160a01b0316845260209093019260019283019201612bf9565b3461018f57602036600319011261018f576004356001600160401b03811161018f57612c6d6020913690600401612da2565b8160405191805191829101835e600490820190815281900382019020546040516001600160a01b039091168152f35b3461018f57604036600319011261018f57612cb5612d4f565b60243590600482101561018f57612cca613276565b60018060a01b031690815f52600260205260405f2090825f52600560205260ff60405f20541615610ddf5781612d4c60409260ff7fa0adb88d5bee89caf0fd0b45645f6f3ba4628c335551aab4b36f830a09c1c91f955460a81c1692612d3082826130e8565b600a42910155612d4284518094612eff565b6020830190612eff565ba2005b600435906001600160a01b038216820361018f57565b6101e081019081106001600160401b0382111761071657604052565b90601f801991011681019081106001600160401b0382111761071657604052565b81601f8201121561018f578035906001600160401b0382116107165760405192612dd6601f8401601f191660200185612d81565b8284526020838301011161018f57815f926020809301838601378301015290565b60206040818301928281528451809452019201905f5b818110612e1a5750505090565b82516001600160a01b0316845260209384019390920191600101612e0d565b90600182811c92168015612e67575b6020831014612e5357565b634e487b7160e01b5f52602260045260245ffd5b91607f1691612e48565b5f9291815491612e8083612e39565b8083529260018116908115612ed55750600114612e9c57505050565b5f9081526020812093945091925b838310612ebb575060209250010190565b600181602092949394548385870101520191019190612eaa565b915050602093945060ff929192191683830152151560051b010190565b906002821015610b965752565b906004821015610b965752565b805180835260209291819084018484015e5f828201840152601f01601f1916010190565b6001600160401b0381116107165760051b60200190565b9080601f8301121561018f578135612f5e81612f30565b92612f6c6040519485612d81565b81845260208085019260051b8201019183831161018f5760208201905b838210612f9857505050505090565b81356001600160401b03811161018f57602091612fba87848094880101612da2565b815201910190612f89565b6002811015610b96575f52600360205260405f2090565b8054821015612ff1575f5260205f2001905f90565b634e487b7160e01b5f52603260045260245ffd5b90608060031983011261018f576004356001600160401b03811161018f578261303091600401612da2565b916024356001600160401b03811161018f578161304f91600401612da2565b916044356001600160401b03811161018f578261306e91600401612da2565b91606435906001600160401b03821161018f5761308d91600401612da2565b90565b9080602083519182815201916020808360051b8301019401925f915b8383106130bb57505050505090565b90919293946020806130d9600193601f198682030187528951612f0c565b970193019301919392906130ac565b906004811015610b9657815460ff60a81b191660a89190911b60ff60a81b16179055565b9061311682612f30565b6131236040519182612d81565b8281528092613134601f1991612f30565b0190602036910137565b8051821015612ff15760209160051b010190565b6002821015610b965752565b6004821015610b965752565b90815461317681612f30565b926131846040519485612d81565b81845260208401905f5260205f205f915b8383106131a25750505050565b6001602081926040516131b981611c188189612e71565b815201920192019190613195565b8181106131d2575050565b5f81556001016131c7565b9081602091031261018f5751801515810361018f5790565b8054600160401b8110156107165761321291600182018155612fdc565b81546001600160a01b0393841660039290921b91821b9390911b1916919091179055565b91908201809211610db957565b60405190613252602083612d81565b5f80835282815b82811061326557505050565b806060602080938501015201613259565b5f546001600160a01b0316330361328957565b63118cdaa760e01b5f523360045260245ffd5b6002600154146132ad576002600155565b633ee5aeb560e01b5f5260045ffd5b6001600160a01b03165f8181526005602052604090205460ff1661335957508051156133345760405181518060208401835e60049082019081528190036020019020546001600160a01b031661330f5750565b604051636458ffe560e11b81526020600482015290819061218c906024830190612f0c565b604051637f19f48d60e01b81526020600482015290819061218c906024830190612f0c565b639e676ee760e01b5f5260045260245ffd5b600654806133765750565b8034106133ed578034116133bc575b506007546001600160a01b03168061339a5750565b5f80808093600654908282156133b3575bf115610bec57565b506108fc6133ab565b80340390348211610db9575f8080938193829034146133e4575b3390f115610bec575f613385565b506108fc6133d6565b60405162461bcd60e51b815260206004820152601d60248201527f496e73756666696369656e7420726567697374726174696f6e206665650000006044820152606490fdfea264697066735822122059d37732022f80ce8d419b24005c4619630a4b71020ef84441cb6f07d601566164736f6c634300081c0033",
  "linkReferences": {},
  "deployedLinkReferences": {},
  "immutableReferences": {
    "323": [
      {
        "length": 32,
        "start": 457
      },
      {
        "length": 32,
        "start": 3953
      },
      {
        "length": 32,
        "start": 9999
      }
    ]
  },
  "inputSourceName": "project/contracts/UserRegistry.sol",
  "buildInfoId": "solc-0_8_28-ae6ac6962bab213dbc07e4257e04eb80342a80b5"
}