{
  "_format": "hh3-artifact-1",
  "contractName": "WorldIDVerifier",
  "sourceName": "contracts/WorldIDVerifier.sol",
  "abi": [
    {
      "inputs": [
        {
          "internalType": "address",
          "name": "initialOwner",
          "type": "address"
        }
      ],
      "stateMutability": "nonpayable",
      "type": "constructor"
    },
    {
      "inputs": [
        {
          "internalType": "string",
          "name": "worldIdHash",
          "type": "string"
        }
      ],
      "name": "InvalidWorldIdHash",
      "type": "error"
    },
    {
      "inputs": [
        {
          "internalType": "address",
          "name": "owner",
          "type": "address"
        }
      ],
      "name": "OwnableInvalidOwner",
      "type": "error"
    },
    {
      "inputs": [
        {
          "internalType": "address",
          "name": "account",
          "type": "address"
        }
      ],
      "name": "OwnableUnauthorizedAccount",
      "type": "error"
    },
    {
      "inputs": [],
      "name": "ReentrancyGuardReentrantCall",
      "type": "error"
    },
    {
      "inputs": [],
      "name": "UnauthorizedAccess",
      "type": "error"
    },
    {
      "inputs": [
        {
          "internalType": "address",
          "name": "user",
          "type": "address"
        }
      ],
      "name": "UserAlreadyVerified",
      "type": "error"
    },
    {
      "inputs": [
        {
          "internalType": "address",
          "name": "user",
          "type": "address"
        }
      ],
      "name": "UserNotVerified",
      "type": "error"
    },
    {
      "inputs": [
        {
          "internalType": "address",
          "name": "user",
          "type": "address"
        }
      ],
      "name": "UserVerificationExpired",
      "type": "error"
    },
    {
      "inputs": [
        {
          "internalType": "string",
          "name": "worldIdHash",
          "type": "string"
        }
      ],
      "name": "WorldIdAlreadyUsed",
      "type": "error"
    },
    {
      "anonymous": false,
      "inputs": [
        {
          "indexed": false,
          "internalType": "bool",
          "name": "allowed",
          "type": "bool"
        }
      ],
      "name": "ExpiredVerificationsToggled",
      "type": "event"
    },
    {
      "anonymous": false,
      "inputs": [
        {
          "indexed": true,
          "internalType": "address",
          "name": "previousOwner",
          "type": "address"
        },
        {
          "indexed": true,
          "internalType": "address",
          "name": "newOwner",
          "type": "address"
        }
      ],
      "name": "OwnershipTransferred",
      "type": "event"
    },
    {
      "anonymous": false,
      "inputs": [
        {
          "indexed": true,
          "internalType": "address",
          "name": "user",
          "type": "address"
        },
        {
          "indexed": true,
          "internalType": "string",
          "name": "worldIdHash",
          "type": "string"
        },
        {
          "indexed": false,
          "internalType": "uint256",
          "name": "verifiedAt",
          "type": "uint256"
        },
        {
          "indexed": false,
          "internalType": "uint256",
          "name": "expiresAt",
          "type": "uint256"
        }
      ],
      "name": "UserVerified",
      "type": "event"
    },
    {
      "anonymous": false,
      "inputs": [
        {
          "indexed": true,
          "internalType": "address",
          "name": "user",
          "type": "address"
        },
        {
          "indexed": true,
          "internalType": "string",
          "name": "worldIdHash",
          "type": "string"
        },
        {
          "indexed": false,
          "internalType": "uint256",
          "name": "expiredAt",
          "type": "uint256"
        }
      ],
      "name": "VerificationExpired",
      "type": "event"
    },
    {
      "anonymous": false,
      "inputs": [
        {
          "indexed": false,
          "internalType": "uint256",
          "name": "newExpiry",
          "type": "uint256"
        }
      ],
      "name": "VerificationExpiryUpdated",
      "type": "event"
    },
    {
      "anonymous": false,
      "inputs": [
        {
          "indexed": true,
          "internalType": "address",
          "name": "user",
          "type": "address"
        },
        {
          "indexed": true,
          "internalType": "string",
          "name": "worldIdHash",
          "type": "string"
        },
        {
          "indexed": false,
          "internalType": "uint256",
          "name": "revokedAt",
          "type": "uint256"
        }
      ],
      "name": "VerificationRevoked",
      "type": "event"
    },
    {
      "inputs": [],
      "name": "allowExpiredVerifications",
      "outputs": [
        {
          "internalType": "bool",
          "name": "",
          "type": "bool"
        }
      ],
      "stateMutability": "view",
      "type": "function"
    },
    {
      "inputs": [
        {
          "internalType": "string",
          "name": "worldIdHash",
          "type": "string"
        }
      ],
      "name": "getAddressByWorldId",
      "outputs": [
        {
          "internalType": "address",
          "name": "",
          "type": "address"
        }
      ],
      "stateMutability": "view",
      "type": "function"
    },
    {
      "inputs": [
        {
          "internalType": "address",
          "name": "user",
          "type": "address"
        }
      ],
      "name": "getUserVerification",
      "outputs": [
        {
          "components": [
            {
              "internalType": "address",
              "name": "userAddress",
              "type": "address"
            },
            {
              "internalType": "string",
              "name": "worldIdHash",
              "type": "string"
            },
            {
              "internalType": "enum WorldIDVerifier.VerificationStatus",
              "name": "status",
              "type": "uint8"
            },
            {
              "internalType": "uint256",
              "name": "verifiedAt",
              "type": "uint256"
            },
            {
              "internalType": "uint256",
              "name": "expiresAt",
              "type": "uint256"
            },
            {
              "internalType": "string",
              "name": "metadata",
              "type": "string"
            }
          ],
          "internalType": "struct WorldIDVerifier.UserVerification",
          "name": "",
          "type": "tuple"
        }
      ],
      "stateMutability": "view",
      "type": "function"
    },
    {
      "inputs": [
        {
          "internalType": "address",
          "name": "user",
          "type": "address"
        }
      ],
      "name": "isUserVerified",
      "outputs": [
        {
          "internalType": "bool",
          "name": "",
          "type": "bool"
        }
      ],
      "stateMutability": "view",
      "type": "function"
    },
    {
      "inputs": [
        {
          "internalType": "address",
          "name": "",
          "type": "address"
        }
      ],
      "name": "isVerified",
      "outputs": [
        {
          "internalType": "bool",
          "name": "",
          "type": "bool"
        }
      ],
      "stateMutability": "view",
      "type": "function"
    },
    {
      "inputs": [
        {
          "internalType": "string",
          "name": "worldIdHash",
          "type": "string"
        }
      ],
      "name": "isWorldIdVerified",
      "outputs": [
        {
          "internalType": "bool",
          "name": "",
          "type": "bool"
        }
      ],
      "stateMutability": "view",
      "type": "function"
    },
    {
      "inputs": [],
      "name": "owner",
      "outputs": [
        {
          "internalType": "address",
          "name": "",
          "type": "address"
        }
      ],
      "stateMutability": "view",
      "type": "function"
    },
    {
      "inputs": [],
      "name": "renounceOwnership",
      "outputs": [],
      "stateMutability": "nonpayable",
      "type": "function"
    },
    {
      "inputs": [
        {
          "internalType": "address",
          "name": "user",
          "type": "address"
        }
      ],
      "name": "revokeVerification",
      "outputs": [],
      "stateMutability": "nonpayable",
      "type": "function"
    },
    {
      "inputs": [
        {
          "internalType": "bool",
          "name": "allowed",
          "type": "bool"
        }
      ],
      "name": "setAllowExpiredVerifications",
      "outputs": [],
      "stateMutability": "nonpayable",
      "type": "function"
    },
    {
      "inputs": [
        {
          "internalType": "uint256",
          "name": "newExpiry",
          "type": "uint256"
        }
      ],
      "name": "setVerificationExpiry",
      "outputs": [],
      "stateMutability": "nonpayable",
      "type": "function"
    },
    {
      "inputs": [
        {
          "internalType": "address",
          "name": "newOwner",
          "type": "address"
        }
      ],
      "name": "transferOwnership",
      "outputs": [],
      "stateMutability": "nonpayable",
      "type": "function"
    },
    {
      "inputs": [
        {
          "internalType": "address",
          "name": "",
          "type": "address"
        }
      ],
      "name": "userVerifications",
      "outputs": [
        {
          "internalType": "address",
          "name": "userAddress",
          "type": "address"
        },
        {
          "internalType": "string",
          "name": "worldIdHash",
          "type": "string"
        },
        {
          "internalType": "enum WorldIDVerifier.VerificationStatus",
          "name": "status",
          "type": "uint8"
        },
        {
          "internalType": "uint256",
          "name": "verifiedAt",
          "type": "uint256"
        },
        {
          "internalType": "uint256",
          "name": "expiresAt",
          "type": "uint256"
        },
        {
          "internalType": "string",
          "name": "metadata",
          "type": "string"
        }
      ],
      "stateMutability": "view",
      "type": "function"
    },
    {
      "inputs": [],
      "name": "verificationExpiry",
      "outputs": [
        {
          "internalType": "uint256",
          "name": "",
          "type": "uint256"
        }
      ],
      "stateMutability": "view",
      "type": "function"
    },
    {
      "inputs": [
        {
          "internalType": "address",
          "name": "user",
          "type": "address"
        },
        {
          "internalType": "string",
          "name": "worldIdHash",
          "type": "string"
        },
        {
          "internalType": "string",
          "name": "metadata",
          "type": "string"
        }
      ],
      "name": "verifyUser",
      "outputs": [],
      "stateMutability": "nonpayable",
      "type": "function"
    },
    {
      "inputs": [
        {
          "internalType": "address[]",
          "name": "users",
          "type": "address[]"
        },
        {
          "internalType": "string[]",
          "name": "worldIdHashes",
          "type": "string[]"
        },
        {
          "internalType": "string[]",
          "name": "metadata",
          "type": "string[]"
        }
      ],
      "name": "verifyUsersBatch",
      "outputs": [],
      "stateMutability": "nonpayable",
      "type": "function"
    },
    {
      "inputs": [
        {
          "internalType": "string",
          "name": "",
          "type": "string"
        }
      ],
      "name": "worldIdToAddress",
      "outputs": [
        {
          "internalType": "address",
          "name": "",
          "type": "address"
        }
      ],
      "stateMutability": "view",
      "type": "function"
    }
  ],
  "bytecode": "0x60803460d157601f61159f38819003918201601f19168301916001600160401b0383118484101760d55780849260209460405283398101031260d157516001600160a01b0381169081900360d157801560be575f80546001600160a01b031981168317825560405192916001600160a01b03909116907f8be0079c531659141344cd1fd0a4f28419497f9722a3daafe3b4186f6b6457e09080a3600180556301e13380600555600160ff1960065416176006556114b590816100ea8239f35b631e4fbdf760e01b5f525f60045260245ffd5b5f80fd5b634e487b7160e01b5f52604160045260245ffdfe60806040526004361015610011575f80fd5b5f3560e01c80630a66b85e14610a205780631ae7cb9114611028578063438833b514610b2d5780634661626814610a815780635d1e37a314610a20578063715018a6146109c957806378c188c5146105455780638da5cb5b1461051e578063a4b80c8f146104fc578063ace417e0146104cf578063b1e0ecb91461046d578063b36c6d1f14610342578063b9209e3314610305578063c069b1b4146102e8578063d6504be91461029c578063e998d2fa1461015d5763f2fde38b146100d4575f80fd5b34610159576020366003190112610159576100ed611131565b6100f5611419565b6001600160a01b03168015610146575f80546001600160a01b03198116831782556001600160a01b0316907f8be0079c531659141344cd1fd0a4f28419497f9722a3daafe3b4186f6b6457e09080a3005b631e4fbdf760e01b5f525f60045260245ffd5b5f80fd5b3461015957602036600319011261015957610176611131565b61017e611419565b60018060a01b0316805f52600260205260405f20600281019060ff82541660048110156102885760020361027557600191600360ff19825416179055825f52600460205260405f2060ff1981541690550160405180915f908054906101e282611147565b916001811690811561025e5750600114610229575b5050039020907f686bbaccfc81b23b0da48a242c24e683cc11f38dfed1c6133b4ac26fec9a8d116020604051428152a3005b9091505f5260205f205f905b828210610247575050810184806101f7565b805482860152849350602090910190600101610235565b60ff191685525050801515028201905084806101f7565b826351049a4360e11b5f5260045260245ffd5b634e487b7160e01b5f52602160045260245ffd5b34610159576020366003190112610159577fa88c956f034d8bac481669023c2d66de3a83bd64b25a354887ffedb34bb1da9960206004356102db611419565b80600555604051908152a1005b34610159575f366003190112610159576020600554604051908152f35b34610159576020366003190112610159576001600160a01b03610326611131565b165f526004602052602060ff60405f2054166040519015158152f35b346101595760203660031901126101595761035b611131565b606060a060405161036b81611062565b5f81528260208201525f60408201525f838201525f6080820152015260018060a01b03165f52600260205260405f206040516103a681611062565b81546001600160a01b031681526104696103c26001840161117f565b926020830193845260ff600282015416906103e1604085019283611348565b600381015490606085019182526104066005600483015492608088019384520161117f565b9160a0860192835261044b61043f60405198899860208a5260018060a01b0390511660208a01525160c060408a015260e089019061121f565b94516060880190611243565b5160808601525160a085015251838203601f190160c085015261121f565b0390f35b34610159576020366003190112610159576004358015158091036101595760207ffafd70f5f91decc6200cbf27e6ba1b61e850a98735415a45947b7a626807ba9c916104b7611419565b60ff196006541660ff821617600655604051908152a1005b346101595760203660031901126101595760206104f26104ed611131565b61136c565b6040519015158152f35b34610159575f36600319011261015957602060ff600654166040519015158152f35b34610159575f366003190112610159575f546040516001600160a01b039091168152602090f35b346101595760603660031901126101595761055e611131565b6024356001600160401b0381116101595761057d9036906004016110e3565b6044356001600160401b0381116101595761059c9036906004016110e3565b916105a5611419565b6105ad61143f565b8151156109a7576001600160a01b03165f8181526004602052604090205490919060ff16610994576040519080519160208201928084835e60039082019081528190036020019020546001600160a01b031661096b576005544201938442116109575760405161061c81611062565b8481526020808201848152600260408085018281524260608701908152608087018c815260a088019889525f8c81529490965291909220945185546001600160a01b0319166001600160a01b0391909116178555915180519294939260018501916001600160401b0382116108855781906106978454611147565b601f8111610907575b50602090601f83116001146108a4575f92610899575b50508160011b915f199060031b1c19161790555b51926004841015610288576106e460059460028501611354565b5160038301555160048201550190518051906001600160401b0382116108855761070e8354611147565b601f8111610840575b50602090601f83116001146107ca5791805f5160206114605f395f51905f52969492604096945f926107bf575b50508160011b915f199060031b1c19161790555b825160208183518086835e81016003815203019020856bffffffffffffffffffffffff60a01b825416179055845f526004602052825f20600160ff198254161790558251918291518091835e81015f8152039020938151904282526020820152a360018055005b015190508980610744565b90601f19831691845f52815f20925f5b8181106108285750926001928592604098965f5160206114605f395f51905f529a989610610810575b505050811b019055610758565b01515f1960f88460031b161c19169055898080610803565b929360206001819287860151815501950193016107da565b835f5260205f20601f840160051c8101916020851061087b575b601f0160051c01905b8181106108705750610717565b5f8155600101610863565b909150819061085a565b634e487b7160e01b5f52604160045260245ffd5b015190508c806106b6565b5f8581528281209350601f198516905b8181106108ef57509084600195949392106108d7575b505050811b0190556106ca565b01515f1960f88460031b161c191690558c80806108ca565b929360206001819287860151815501950193016108b4565b909150835f5260205f20601f840160051c8101916020851061094d575b90601f859493920160051c01905b81811061093f57506106a0565b5f8155849350600101610932565b9091508190610924565b634e487b7160e01b5f52601160045260245ffd5b60405163034acaf160e01b81526020600482015290819061099090602483019061121f565b0390fd5b506323a6222360e11b5f5260045260245ffd5b60405163819d624760e01b81526020600482015280610990602482018561121f565b34610159575f366003190112610159576109e1611419565b5f80546001600160a01b0319811682556001600160a01b03167f8be0079c531659141344cd1fd0a4f28419497f9722a3daafe3b4186f6b6457e08280a3005b34610159576020366003190112610159576004356001600160401b03811161015957610a5260209136906004016110e3565b8160405191805191829101835e600390820190815281900382019020546040516001600160a01b039091168152f35b34610159576020366003190112610159576001600160a01b03610aa2611131565b165f90815260026020526040902080546001600160a01b0316610469610aca6001840161117f565b9260ff60028201541690600381015490610aeb60056004830154920161117f565b91610b16610b0b604051988998895260c060208a015260c089019061121f565b946040880190611243565b6060860152608085015283820360a085015261121f565b34610159576060366003190112610159576004356001600160401b03811161015957610b5d903690600401611101565b6024356001600160401b03811161015957610b7c903690600401611101565b6044356001600160401b03811161015957610b9b903690600401611101565b9094610ba5611419565b610bad61143f565b8285148061101f575b15610fe1575f5b85811015610fdb57600581901b8201356001600160a01b03811690819003610159578790610c1185610c09610bff86610bf7818c8e6112f3565b9490976112f3565b959092369161109e565b93369161109e565b91610c1a611419565b610c2261143f565b805115610fb657815f52600460205260ff60405f205416610994576040519080519160208201928084835e60039082019081528190036020019020546001600160a01b031661096b5760055442019384421161095757604051610c8481611062565b8481526020808201848152600260408085018281524260608701908152608087018c815260a088019889525f8c81529490965291909220945185546001600160a01b0319166001600160a01b0391909116178555915180519294939260018501916001600160401b038211610885578190610cff8454611147565b601f8111610f66575b50602090601f8311600114610f03575f92610ef8575b50508160011b915f199060031b1c19161790555b5192600484101561028857610d4c60059460028501611354565b5160038301555160048201550190518051906001600160401b03821161088557610d768354611147565b601f8111610eb3575b50602090601f8311600114610e38579282600199989796935f5160206114605f395f51905f5296936040965f92610e2d575b50505f19600383901b1c1916908a1b1790555b825160208183518086835e81016003815203019020856bffffffffffffffffffffffff60a01b825416179055845f526004602052825f208860ff198254161790558251918291518091835e81015f8152039020938151904282526020820152a381805501610bbd565b015190505f80610db1565b90601f19831691845f52815f20925f5b818110610e9b5750935f5160206114605f395f51905f5296936040969360019c9b9a999693838e9510610e83575b505050811b019055610dc4565b01515f1960f88460031b161c191690555f8080610e76565b92936020600181928786015181550195019301610e48565b835f5260205f20601f840160051c81019160208510610eee575b601f0160051c01905b818110610ee35750610d7f565b5f8155600101610ed6565b9091508190610ecd565b015190505f80610d1e565b5f8581528281209350601f198516905b818110610f4e5750908460019594939210610f36575b505050811b019055610d32565b01515f1960f88460031b161c191690555f8080610f29565b92936020600181928786015181550195019301610f13565b909150835f5260205f20601f840160051c81019160208510610fac575b90601f859493920160051c01905b818110610f9e5750610d08565b5f8155849350600101610f91565b9091508190610f83565b60405163819d624760e01b81526020600482015290819061099090602483019061121f565b60018055005b60405162461bcd60e51b8152602060048201526016602482015275082e4e4c2f2e640d8cadccee8d040dad2e6dac2e8c6d60531b6044820152606490fd5b50818514610bb6565b34610159576020366003190112610159576004356001600160401b038111610159576104f261105d60209236906004016110e3565b611250565b60c081019081106001600160401b0382111761088557604052565b90601f801991011681019081106001600160401b0382111761088557604052565b9291926001600160401b03821161088557604051916110c7601f8201601f19166020018461107d565b829481845281830111610159578281602093845f960137010152565b9080601f83011215610159578160206110fe9335910161109e565b90565b9181601f84011215610159578235916001600160401b038311610159576020808501948460051b01011161015957565b600435906001600160a01b038216820361015957565b90600182811c92168015611175575b602083101461116157565b634e487b7160e01b5f52602260045260245ffd5b91607f1691611156565b9060405191825f82549261119284611147565b80845293600181169081156111fd57506001146111b9575b506111b79250038361107d565b565b90505f9291925260205f20905f915b8183106111e15750509060206111b7928201015f6111aa565b60209193508060019154838589010152019101909184926111c8565b9050602092506111b794915060ff191682840152151560051b8201015f6111aa565b805180835260209291819084018484015e5f828201840152601f01601f1916010190565b9060048210156102885752565b602060405191805191829101835e60039082019081528190036020019020546001600160a01b031680156112ee576040519063056720bf60e51b82526004820152602081602481305afa9081156112e3575f916112ab575090565b90506020813d6020116112db575b816112c66020938361107d565b81010312610159575180151581036101595790565b3d91506112b9565b6040513d5f823e3d90fd5b505f90565b91908110156113345760051b81013590601e19813603018212156101595701908135916001600160401b038311610159576020018236038113610159579190565b634e487b7160e01b5f52603260045260245ffd5b60048210156102885752565b9060048110156102885760ff80198354169116179055565b60018060a01b03165f52600260205260405f2060405161138b81611062565b81546001600160a01b031681526113a46001830161117f565b602082015260ff600283015416906113c0604082019283611348565b6003830154606082015260a06113e46005600486015495608085019687520161117f565b91015251600481101561028857600119016112ee5751421161140557600190565b60ff600654161561141557600190565b5f90565b5f546001600160a01b0316330361142c57565b63118cdaa760e01b5f523360045260245ffd5b600260015414611450576002600155565b633ee5aeb560e01b5f5260045ffdfe1da6a0e1284f80526ea65ae53c9ad935d1a0318220d737af097e3acd3d3bb91da2646970667358221220fa9a6d20a76423a7a2d9fe99572d6b8a73f0dd59cda621bb5a02cdad67cff25164736f6c634300081c0033",
  "linkReferences": {},
  "deployedLinkReferences": {},
  "immutableReferences": {},
  "inputSourceName": "project/contracts/WorldIDVerifier.sol",
  "buildInfoId": "solc-0_8_28-69f50790ca2a8e1e8609878bd26df416e86cbcb2"
}