{
  "_format": "hh3-artifact-1",
  "contractName": "EscrowWithLending",
  "sourceName": "contracts/EscrowWithLending.sol",
  "abi": [
    {
      "inputs": [
        {
          "internalType": "address",
          "name": "initialOwner",
          "type": "address"
        },
        {
          "internalType": "address",
          "name": "permit2_address",
          "type": "address"
        },
        {
          "internalType": "address",
          "name": "morpho_address",
          "type": "address"
        }
      ],
      "stateMutability": "nonpayable",
      "type": "constructor"
    },
    {
      "inputs": [],
      "name": "EscrowNotInPendingStatus",
      "type": "error"
    },
    {
      "inputs": [],
      "name": "InsufficientPermitAmount",
      "type": "error"
    },
    {
      "inputs": [
        {
          "internalType": "bytes32",
          "name": "escrowId",
          "type": "bytes32"
        }
      ],
      "name": "InvalidEscrow",
      "type": "error"
    },
    {
      "inputs": [
        {
          "internalType": "address",
          "name": "owner",
          "type": "address"
        }
      ],
      "name": "OwnableInvalidOwner",
      "type": "error"
    },
    {
      "inputs": [
        {
          "internalType": "address",
          "name": "account",
          "type": "address"
        }
      ],
      "name": "OwnableUnauthorizedAccount",
      "type": "error"
    },
    {
      "inputs": [],
      "name": "ReentrancyGuardReentrantCall",
      "type": "error"
    },
    {
      "inputs": [
        {
          "internalType": "address",
          "name": "token",
          "type": "address"
        }
      ],
      "name": "SafeERC20FailedOperation",
      "type": "error"
    },
    {
      "inputs": [],
      "name": "TransferFailed",
      "type": "error"
    },
    {
      "inputs": [],
      "name": "UnauthorizedAccess",
      "type": "error"
    },
    {
      "inputs": [
        {
          "internalType": "address",
          "name": "tokenAddress",
          "type": "address"
        }
      ],
      "name": "UnsupportedToken",
      "type": "error"
    },
    {
      "anonymous": false,
      "inputs": [
        {
          "indexed": true,
          "internalType": "bytes32",
          "name": "escrowId",
          "type": "bytes32"
        },
        {
          "indexed": true,
          "internalType": "address",
          "name": "initiator",
          "type": "address"
        }
      ],
      "name": "DisputeInitiated",
      "type": "event"
    },
    {
      "anonymous": false,
      "inputs": [
        {
          "indexed": true,
          "internalType": "bytes32",
          "name": "escrowId",
          "type": "bytes32"
        },
        {
          "indexed": true,
          "internalType": "address",
          "name": "buyer",
          "type": "address"
        },
        {
          "indexed": true,
          "internalType": "address",
          "name": "vendor",
          "type": "address"
        },
        {
          "indexed": false,
          "internalType": "address",
          "name": "token",
          "type": "address"
        },
        {
          "indexed": false,
          "internalType": "uint256",
          "name": "totalAmount",
          "type": "uint256"
        },
        {
          "indexed": false,
          "internalType": "string",
          "name": "serviceId",
          "type": "string"
        }
      ],
      "name": "EscrowCreated",
      "type": "event"
    },
    {
      "anonymous": false,
      "inputs": [
        {
          "indexed": true,
          "internalType": "bytes32",
          "name": "escrowId",
          "type": "bytes32"
        },
        {
          "indexed": true,
          "internalType": "address",
          "name": "vendor",
          "type": "address"
        },
        {
          "indexed": false,
          "internalType": "uint256",
          "name": "amount",
          "type": "uint256"
        }
      ],
      "name": "FundsReleased",
      "type": "event"
    },
    {
      "anonymous": false,
      "inputs": [
        {
          "indexed": true,
          "internalType": "bytes32",
          "name": "escrowId",
          "type": "bytes32"
        },
        {
          "indexed": true,
          "internalType": "address",
          "name": "platform",
          "type": "address"
        },
        {
          "indexed": false,
          "internalType": "uint256",
          "name": "yieldAmount",
          "type": "uint256"
        }
      ],
      "name": "LendingYieldClaimed",
      "type": "event"
    },
    {
      "anonymous": false,
      "inputs": [
        {
          "indexed": true,
          "internalType": "address",
          "name": "previousOwner",
          "type": "address"
        },
        {
          "indexed": true,
          "internalType": "address",
          "name": "newOwner",
          "type": "address"
        }
      ],
      "name": "OwnershipTransferred",
      "type": "event"
    },
    {
      "anonymous": false,
      "inputs": [
        {
          "indexed": true,
          "internalType": "bytes32",
          "name": "escrowId",
          "type": "bytes32"
        },
        {
          "indexed": true,
          "internalType": "address",
          "name": "vendor",
          "type": "address"
        },
        {
          "indexed": false,
          "internalType": "uint256",
          "name": "vendorAmount",
          "type": "uint256"
        },
        {
          "indexed": false,
          "internalType": "uint256",
          "name": "lendingAmount",
          "type": "uint256"
        }
      ],
      "name": "ServiceConfirmed",
      "type": "event"
    },
    {
      "inputs": [],
      "name": "LENDING_PERCENTAGE",
      "outputs": [
        {
          "internalType": "uint256",
          "name": "",
          "type": "uint256"
        }
      ],
      "stateMutability": "view",
      "type": "function"
    },
    {
      "inputs": [],
      "name": "VENDOR_PERCENTAGE",
      "outputs": [
        {
          "internalType": "uint256",
          "name": "",
          "type": "uint256"
        }
      ],
      "stateMutability": "view",
      "type": "function"
    },
    {
      "inputs": [
        {
          "internalType": "address",
          "name": "tokenAddress",
          "type": "address"
        },
        {
          "components": [
            {
              "internalType": "address",
              "name": "loanToken",
              "type": "address"
            },
            {
              "internalType": "address",
              "name": "collateralToken",
              "type": "address"
            },
            {
              "internalType": "address",
              "name": "oracle",
              "type": "address"
            },
            {
              "internalType": "address",
              "name": "irm",
              "type": "address"
            },
            {
              "internalType": "uint256",
              "name": "lltv",
              "type": "uint256"
            }
          ],
          "internalType": "struct IMorpho.MarketParams",
          "name": "marketParams",
          "type": "tuple"
        }
      ],
      "name": "allowToken",
      "outputs": [],
      "stateMutability": "nonpayable",
      "type": "function"
    },
    {
      "inputs": [
        {
          "internalType": "address",
          "name": "",
          "type": "address"
        }
      ],
      "name": "allowedTokens",
      "outputs": [
        {
          "internalType": "bool",
          "name": "",
          "type": "bool"
        }
      ],
      "stateMutability": "view",
      "type": "function"
    },
    {
      "inputs": [
        {
          "internalType": "bytes32",
          "name": "escrowId",
          "type": "bytes32"
        }
      ],
      "name": "confirmService",
      "outputs": [],
      "stateMutability": "nonpayable",
      "type": "function"
    },
    {
      "inputs": [
        {
          "internalType": "address",
          "name": "vendor",
          "type": "address"
        },
        {
          "internalType": "address",
          "name": "tokenAddress",
          "type": "address"
        },
        {
          "internalType": "uint256",
          "name": "totalAmount",
          "type": "uint256"
        },
        {
          "internalType": "string",
          "name": "serviceId",
          "type": "string"
        },
        {
          "components": [
            {
              "components": [
                {
                  "internalType": "address",
                  "name": "token",
                  "type": "address"
                },
                {
                  "internalType": "uint256",
                  "name": "amount",
                  "type": "uint256"
                }
              ],
              "internalType": "struct IPermit2.TokenPermissions",
              "name": "permitted",
              "type": "tuple"
            },
            {
              "internalType": "uint256",
              "name": "nonce",
              "type": "uint256"
            },
            {
              "internalType": "uint256",
              "name": "deadline",
              "type": "uint256"
            }
          ],
          "internalType": "struct IPermit2.PermitTransferFrom",
          "name": "permit",
          "type": "tuple"
        },
        {
          "internalType": "bytes",
          "name": "signature",
          "type": "bytes"
        }
      ],
      "name": "createEscrowWithPermit",
      "outputs": [
        {
          "internalType": "bytes32",
          "name": "",
          "type": "bytes32"
        }
      ],
      "stateMutability": "nonpayable",
      "type": "function"
    },
    {
      "inputs": [
        {
          "internalType": "bytes32",
          "name": "",
          "type": "bytes32"
        }
      ],
      "name": "escrows",
      "outputs": [
        {
          "internalType": "address",
          "name": "buyer",
          "type": "address"
        },
        {
          "internalType": "address",
          "name": "vendor",
          "type": "address"
        },
        {
          "internalType": "address",
          "name": "token",
          "type": "address"
        },
        {
          "internalType": "uint256",
          "name": "totalAmount",
          "type": "uint256"
        },
        {
          "internalType": "uint256",
          "name": "vendorAmount",
          "type": "uint256"
        },
        {
          "internalType": "uint256",
          "name": "lendingAmount",
          "type": "uint256"
        },
        {
          "internalType": "enum EscrowWithLending.EscrowStatus",
          "name": "status",
          "type": "uint8"
        },
        {
          "internalType": "uint256",
          "name": "createdAt",
          "type": "uint256"
        },
        {
          "internalType": "uint256",
          "name": "confirmedAt",
          "type": "uint256"
        },
        {
          "internalType": "string",
          "name": "serviceId",
          "type": "string"
        },
        {
          "internalType": "uint256",
          "name": "supplyShares",
          "type": "uint256"
        },
        {
          "internalType": "bytes32",
          "name": "marketId",
          "type": "bytes32"
        }
      ],
      "stateMutability": "view",
      "type": "function"
    },
    {
      "inputs": [
        {
          "internalType": "bytes32",
          "name": "escrowId",
          "type": "bytes32"
        }
      ],
      "name": "getCurrentPosition",
      "outputs": [
        {
          "internalType": "uint256",
          "name": "supplyShares",
          "type": "uint256"
        },
        {
          "internalType": "uint128",
          "name": "borrowShares",
          "type": "uint128"
        },
        {
          "internalType": "uint128",
          "name": "collateral",
          "type": "uint128"
        }
      ],
      "stateMutability": "view",
      "type": "function"
    },
    {
      "inputs": [
        {
          "internalType": "bytes32",
          "name": "escrowId",
          "type": "bytes32"
        }
      ],
      "name": "getCurrentYield",
      "outputs": [
        {
          "internalType": "uint256",
          "name": "",
          "type": "uint256"
        }
      ],
      "stateMutability": "view",
      "type": "function"
    },
    {
      "inputs": [
        {
          "internalType": "bytes32",
          "name": "escrowId",
          "type": "bytes32"
        }
      ],
      "name": "getEscrow",
      "outputs": [
        {
          "components": [
            {
              "internalType": "address",
              "name": "buyer",
              "type": "address"
            },
            {
              "internalType": "address",
              "name": "vendor",
              "type": "address"
            },
            {
              "internalType": "address",
              "name": "token",
              "type": "address"
            },
            {
              "internalType": "uint256",
              "name": "totalAmount",
              "type": "uint256"
            },
            {
              "internalType": "uint256",
              "name": "vendorAmount",
              "type": "uint256"
            },
            {
              "internalType": "uint256",
              "name": "lendingAmount",
              "type": "uint256"
            },
            {
              "internalType": "enum EscrowWithLending.EscrowStatus",
              "name": "status",
              "type": "uint8"
            },
            {
              "internalType": "uint256",
              "name": "createdAt",
              "type": "uint256"
            },
            {
              "internalType": "uint256",
              "name": "confirmedAt",
              "type": "uint256"
            },
            {
              "internalType": "string",
              "name": "serviceId",
              "type": "string"
            },
            {
              "internalType": "uint256",
              "name": "supplyShares",
              "type": "uint256"
            },
            {
              "internalType": "bytes32",
              "name": "marketId",
              "type": "bytes32"
            }
          ],
          "internalType": "struct EscrowWithLending.EscrowData",
          "name": "",
          "type": "tuple"
        }
      ],
      "stateMutability": "view",
      "type": "function"
    },
    {
      "inputs": [
        {
          "internalType": "bytes32",
          "name": "escrowId",
          "type": "bytes32"
        }
      ],
      "name": "initiateDispute",
      "outputs": [],
      "stateMutability": "nonpayable",
      "type": "function"
    },
    {
      "inputs": [],
      "name": "morpho",
      "outputs": [
        {
          "internalType": "contract IMorpho",
          "name": "",
          "type": "address"
        }
      ],
      "stateMutability": "view",
      "type": "function"
    },
    {
      "inputs": [],
      "name": "owner",
      "outputs": [
        {
          "internalType": "address",
          "name": "",
          "type": "address"
        }
      ],
      "stateMutability": "view",
      "type": "function"
    },
    {
      "inputs": [],
      "name": "permit2",
      "outputs": [
        {
          "internalType": "contract IPermit2",
          "name": "",
          "type": "address"
        }
      ],
      "stateMutability": "view",
      "type": "function"
    },
    {
      "inputs": [],
      "name": "renounceOwnership",
      "outputs": [],
      "stateMutability": "nonpayable",
      "type": "function"
    },
    {
      "inputs": [
        {
          "internalType": "bytes32",
          "name": "escrowId",
          "type": "bytes32"
        },
        {
          "internalType": "bool",
          "name": "favorVendor",
          "type": "bool"
        }
      ],
      "name": "resolveDispute",
      "outputs": [],
      "stateMutability": "nonpayable",
      "type": "function"
    },
    {
      "inputs": [
        {
          "internalType": "address",
          "name": "",
          "type": "address"
        }
      ],
      "name": "tokenToMarket",
      "outputs": [
        {
          "internalType": "address",
          "name": "loanToken",
          "type": "address"
        },
        {
          "internalType": "address",
          "name": "collateralToken",
          "type": "address"
        },
        {
          "internalType": "address",
          "name": "oracle",
          "type": "address"
        },
        {
          "internalType": "address",
          "name": "irm",
          "type": "address"
        },
        {
          "internalType": "uint256",
          "name": "lltv",
          "type": "uint256"
        }
      ],
      "stateMutability": "view",
      "type": "function"
    },
    {
      "inputs": [
        {
          "internalType": "address",
          "name": "newOwner",
          "type": "address"
        }
      ],
      "name": "transferOwnership",
      "outputs": [],
      "stateMutability": "nonpayable",
      "type": "function"
    }
  ],
  "bytecode": "0x60c03461013057601f611f4238819003918201601f19168301916001600160401b03831184841017610134578084926060946040528339810103126101305761004781610148565b61005f604061005860208501610148565b9301610148565b6001600160a01b0390911691821561011d575f80546001600160a01b031981168517825560405194916001600160a01b03909116907f8be0079c531659141344cd1fd0a4f28419497f9722a3daafe3b4186f6b6457e09080a3600180556001600160a01b039081166080521660a052611de5908161015d8239608051818181610af00152610faa015260a051818181610521015281816108610152818161093f01528181610c1e0152818161112b01528181611acc0152611c370152f35b631e4fbdf760e01b5f525f60045260245ffd5b5f80fd5b634e487b7160e01b5f52604160045260245ffd5b51906001600160a01b03821682036101305756fe6080806040526004361015610012575f80fd5b5f905f3560e01c90816302b6cc7714610dbb5750806304313af114610b1f57806312261ee714610ada5780632d83549c146109f857806343a0e3e61461075a57806355ba4f261461073e578063715018a6146106e45780637b2e941e146105f957806383f757f5146105ba5780638da5cb5b14610593578063abca475a14610577578063bb3d0aee14610550578063d8fbc8331461050b578063e744092e146104cc578063f023b81114610303578063f02db70d14610281578063f2fde38b146101fb5763ffe84176146100e4575f80fd5b346101f85760c03660031901126101f8576100fd611759565b60a03660231901126101f657610111611d89565b6001600160a01b03908116808352600360209081526040808520805460ff191660011790559184526004905282209060243590811681036101f25781546001600160a01b0319166001600160a01b0391821617825560443590811681036101f2576001820180546001600160a01b0319166001600160a01b0392831617905560643590811681036101f2576002820180546001600160a01b0319166001600160a01b039092169190911790556101c56118e7565b6003820180546001600160a01b0319166001600160a01b0390921691909117905560a43560049091015580f35b8280fd5b505b80fd5b50346101f85760203660031901126101f857610215611759565b61021d611d89565b6001600160a01b0316801561026d5781546001600160a01b03198116821783556001600160a01b03167f8be0079c531659141344cd1fd0a4f28419497f9722a3daafe3b4186f6b6457e08380a380f35b631e4fbdf760e01b82526004829052602482fd5b50346101f85760203660031901126101f85760a0906040906001600160a01b036102a9611759565b168152600460205220600180831b0381541690600180841b0360018201541690600180851b036002820154166004600180871b03600384015416920154926040519485526020850152604084015260608301526080820152f35b50346101f85760203660031901126101f857604081819261016083516103288161178b565b82815282602082015282858201528260608201528260808201528260a08201528260c08201528260e082015282610100820152606061012082015282610140820152015260043581526002602052208151906103838261178b565b80546001600160a01b03908116835260018201548116602084019081526002830154909116848401908152600383015460608501908152600484015460808601908152600585015460a0870190815260068601549496946104b9949392916104969160c0880191906103f89060ff1683611952565b60078901549360e0890194855260088a0154956101008a0196875261041f60098c01611802565b976101208b01988952600b600a8d01549c6101408d019d8e5201549a61016081019b8c528e519e8f9e8f926020845260018060a01b03905116602084015260018060a01b0390511691015260018060a01b0390511660608d01525160808c01525160a08b01525160c08a01525160e08901906118a2565b5161010087015251610120860152516101806101408601526101a08501906118c3565b9151610160840152516101808301520390f35b50346101f85760203660031901126101f85760209060ff906040906001600160a01b036104f7611759565b168152600384522054166040519015158152f35b50346101f857806003193601126101f8576040517f00000000000000000000000000000000000000000000000000000000000000006001600160a01b03168152602090f35b50346101f85760203660031901126101f857602061056f600435611b45565b604051908152f35b50346101f857806003193601126101f857602060405160508152f35b50346101f857806003193601126101f857546040516001600160a01b039091168152602090f35b50346101f85760203660031901126101f85760606001600160801b03806105e26004356119e1565b919390604051948552166020840152166040820152f35b50346101f85760203660031901126101f85760043580825260026020526040822080546001600160a01b03169081156106d057600681019160ff83541660048110156106bc576106ad573314159081610695575b5061068657805460ff1916600217905533907faf1ca65fba315c1f1354bfcc8b39297e24443835dfd1709cd67f9bd5537828958380a380f35b631a27eac360e11b8352600483fd5b600101546001600160a01b031633141590505f61064d565b6364e55dd560e11b8552600485fd5b634e487b7160e01b86526021600452602486fd5b63709d2f8560e11b84526004839052602484fd5b50346101f857806003193601126101f8576106fd611d89565b80546001600160a01b03198116825581906001600160a01b03167f8be0079c531659141344cd1fd0a4f28419497f9722a3daafe3b4186f6b6457e08280a380f35b50346101f857806003193601126101f857602060405160148152f35b50346101f85760403660031901126101f85760043560243580151581036101f257610783611d89565b61078b611cda565b81835260026020526040832080549092906001600160a01b0316156109e65750600682019060ff82541660048110156109d2576002036109c3576002830180546001600160a01b0316855260046020819052604080872090519391906107f08561176f565b80546001600160a01b0390811686526001820154811660208701526002820154811660408701526003820154166060860152015460808401521561090c576040600585015492600a86015461085c83519586938493635c2bea4960e01b8552309230926004870161195e565b0381887f00000000000000000000000000000000000000000000000000000000000000006001600160a01b03165af1908115610901576108b69286926108cf575b505460018501546001600160a01b039081169116611cfa565b805460ff191660011790555b6008429101556001805580f35b6108f291925060403d6040116108fa575b6108ea81836117a8565b8101906118fd565b50905f61089d565b503d6108e0565b6040513d87823e3d90fd5b6040600585015492600a86015461093a83519586938493635c2bea4960e01b8552309230926004870161195e565b0381887f00000000000000000000000000000000000000000000000000000000000000006001600160a01b03165af1908115610901576109919286926109a1575b505484546001600160a01b039081169116611cfa565b805460ff191660031790556108c2565b6109bb91925060403d6040116108fa576108ea81836117a8565b50905f61097b565b6364e55dd560e11b8452600484fd5b634e487b7160e01b85526021600452602485fd5b63709d2f8560e11b8452600452602483fd5b50346101f85760203660031901126101f85760406020916004358152600283522060018060a01b038154169060018060a01b03600182015416610ac960018060a01b0360028401541660038401546004850154610aaa600587015460ff6006890154169060078901549360088a015495610a7460098c01611802565b97600b600a8d01549c01549a6040519e8f9e8f908152015260408d015260608c015260808b015260a08a015260c08901906118a2565b60e08701526101008601526101806101208601526101808501906118c3565b916101408401526101608301520390f35b50346101f857806003193601126101f8576040517f00000000000000000000000000000000000000000000000000000000000000006001600160a01b03168152602090f35b50346101f85760203660031901126101f857600435610b3c611cda565b80825260026020526040822080549091906001600160a01b03168015610da757600683019060ff82541660048110156106bc576106ad573303610d98576002830180546001600160a01b03168552600460208190526040808720905192939190610ba58461176f565b80546001600160a01b03908116855260018201548116602086015260028201548116604080870191909152600383015490911660608601529101546080840152600586018054600a8801548351635c2bea4960e01b81529298929592939286928392610c199230928392916004870161195e565b03818a7f00000000000000000000000000000000000000000000000000000000000000006001600160a01b03165af1918215610d8d577f75d86e5bfa1175e2dc677f3abe3aebba3069f2db6ae492f1734d4b4bc65f61c1946020948994610d6b575b50610c8888548095611997565b81546001850180549096929392610cad9290916001600160a01b039081169116611cfa565b81610d10575b5050600160ff1982541617905560084291015560018060a01b03905416935484847fe74bbbfc56ffe65daa8efe49c300785b4546d77c22e7376242f77eb7aebb0aac604080518581528587820152a3604051908152a36001805580f35b548954610d2b9183916001600160a01b039081169116611cfa565b88546040519182526001600160a01b03169087907f486e4ae78e9314685c898579e7ee9fed537dfba0434a09fce5617f0e2edbc13b908790a35f80610cb3565b610d8591945060403d6040116108fa576108ea81836117a8565b50925f610c7b565b6040513d89823e3d90fd5b631a27eac360e11b8452600484fd5b63709d2f8560e11b84526004829052602484fd5b9050346115e3576101203660031901126115e357610dd7611759565b602435916001600160a01b03831683036115e3576064359267ffffffffffffffff84116115e357366023850112156115e357836004013567ffffffffffffffff81116115e757610e31601f8201601f1916602001846117a8565b808352602083019436602483830101116115e357815f9260246020930188378401015260803660831901126115e357610104359067ffffffffffffffff82116115e357366023830112156115e35781600401359167ffffffffffffffff83116115e35736602484830101116115e357610ea8611cda565b6001600160a01b03851694851561171b57604435156116e55760e435428111156116af576001600160a01b0384165f9081526003602052604090205460ff1615611691576001600160a01b0384811690610f006118e7565b16036116545760a43597604435891061160f57604051610f716020607c83828101953360601b87526001600160601b03198960601b1660348301526001600160601b03198b60601b166048830152604435605c8301528c5180918484015e81014283820152030180845201826117a8565b5190209760146044350260443581046014036115fb57606490049560506044350260443581046050036115fb57604080516064909204967f00000000000000000000000000000000000000000000000000000000000000006001600160a01b0316929091810167ffffffffffffffff8111828210176115e75760405230815260208101906044358252833b156115e35760405163187945bd60e11b8152966084356001600160a01b03811696908790036115e3578060248a98965f9a96610124968b99968d998b9860048a01528589015260c4356044890152606488015260018060a01b0390511660848701525160a48601523360c486015261010060e48601528261010486015201848401378181018301849052601f01601f191681010301925af180156115d8576115c3575b506110b59084906001600160a01b038516611cfa565b6001600160a01b0382168752600460205260408088209051906110d78261176f565b80546001600160a01b03908116808452600183015482166020850152600283015482166040850152600383015490911660608401526004909101546080830152156115865760405163095ea7b360e01b81527f00000000000000000000000000000000000000000000000000000000000000006001600160a01b0316600482018190526024820184905289929160208180604481010381876001600160a01b038b165af1801561157b5761153a575b5060409061014482518095819363a99aad8960e01b83526111aa6004840188611913565b8860a48401528160c48401523060e4840152610120610104840152816101248401525af191821561152f57899261150c575b506040516111ee602082018093611913565b60a081526111fd60c0826117a8565b519020916040519461120e8661178b565b33865260208601938885526040870160018060a01b0387168152606088019160443583526080890193845260a0890194855260c08901958d87524260e08b01528d6101008b01528a6101208b01526101408a01526101608901528a8c52600260205260408c209560018060a01b0360018060a01b038a5116166001600160601b0360a01b88541617875560018060a01b03905116600187019060018060a01b03166001600160601b0360a01b82541617905560018060a01b03905116600286019060018060a01b03166001600160601b0360a01b82541617905551600385015551600484015551600583015560068201905160048110156114f85760ff8019835416911617905560e083015160078201556101008301516008820155600981019261012081015180519067ffffffffffffffff82116114e45761135186546117ca565b601f811161149f575b506020998995949392918b916001601f85111461140f579280600b95937f6e96bf1382bd44f89fb2313a1272f29cf8c95a82a9fc61e6d7f37f1a1c2c741e999a936101609692611404575b50508160011b915f199060031b1c19161790555b610140810151600a85015501519101556040519060018060a01b031681526044358782015260606040820152806113f5339560608301906118c3565b0390a460018055604051908152f35b015190505f806113a5565b90601f98939298198316848352898320925b81811061148557509261016094927f6e96bf1382bd44f89fb2313a1272f29cf8c95a82a9fc61e6d7f37f1a1c2c741e999a60019383600b99971061146d575b505050811b0190556113b9565b01515f1960f88460031b161c191690555f8080611460565b828b01518455998e01998d99506001909301928e01611421565b868b5260208b20601f840160051c810191602085106114da575b601f0160051c01905b8181106114cf575061135a565b8b81556001016114c2565b90915081906114b9565b634e487b7160e01b8a52604160045260248afd5b634e487b7160e01b89526021600452602489fd5b61152691925060403d6040116108fa576108ea81836117a8565b9050905f6111dc565b6040513d8b823e3d90fd5b6020813d602011611573575b81611553602093836117a8565b8101031261156f575190811515820361156f5790506040611186565b8380fd5b3d9150611546565b6040513d86823e3d90fd5b60405162461bcd60e51b815260206004820152601560248201527413585c9ad95d081b9bdd0818dbdb999a59dd5c9959605a1b6044820152606490fd5b6115d09198505f906117a8565b5f968361109f565b6040513d5f823e3d90fd5b5f80fd5b634e487b7160e01b5f52604160045260245ffd5b634e487b7160e01b5f52601160045260245ffd5b60405162461bcd60e51b815260206004820152601a60248201527f496e73756666696369656e74207065726d697420616d6f756e740000000000006044820152606490fd5b60405162461bcd60e51b81526020600482015260156024820152740a0cae4dad2e840e8ded6cadc40dad2e6dac2e8c6d605b1b6044820152606490fd5b635f8b555b60e11b5f9081526001600160a01b038516600452602490fd5b60405162461bcd60e51b815260206004820152600e60248201526d14195c9b5a5d08195e1c1a5c995960921b6044820152606490fd5b60405162461bcd60e51b815260206004820152600e60248201526d125b9d985b1a5908185b5bdd5b9d60921b6044820152606490fd5b60405162461bcd60e51b8152602060048201526016602482015275496e76616c69642076656e646f72206164647265737360501b6044820152606490fd5b600435906001600160a01b03821682036115e357565b60a0810190811067ffffffffffffffff8211176115e757604052565b610180810190811067ffffffffffffffff8211176115e757604052565b90601f8019910116810190811067ffffffffffffffff8211176115e757604052565b90600182811c921680156117f8575b60208310146117e457565b634e487b7160e01b5f52602260045260245ffd5b91607f16916117d9565b9060405191825f825492611815846117ca565b8084529360018116908115611880575060011461183c575b5061183a925003836117a8565b565b90505f9291925260205f20905f915b81831061186457505090602061183a928201015f61182d565b602091935080600191548385890101520191019091849261184b565b90506020925061183a94915060ff191682840152151560051b8201015f61182d565b9060048210156118af5752565b634e487b7160e01b5f52602160045260245ffd5b805180835260209291819084018484015e5f828201840152601f01601f1916010190565b6084356001600160a01b03811681036115e35790565b91908260409103126115e3576020825192015190565b80516001600160a01b03908116835260208083015182169084015260408083015182169084015260608083015190911690830152608090810151910152565b60048210156118af5752565b9390959491926101009361197786610120810199611913565b60a086015260c08501526001600160a01b0390811660e085015216910152565b919082039182116115fb57565b51906001600160801b03821682036115e357565b908160609103126115e3578051916119de60406119d7602085016119a4565b93016119a4565b90565b5f52600260205260405f20600b604051916119fb8361178b565b80546001600160a01b03908116845260018201548116602085015260028201541660408401526003810154606084015260048101546080840152600581015460a08401526006810154611a549060ff1660c08501611952565b600781015460e08401526008810154610100840152611a7560098201611802565b610120840152600a8101546101408401520154610160820181905290516001600160a01b031615611b3c576040516349e2903160e11b81526004810191909152306024820152906060826044816001600160a01b037f0000000000000000000000000000000000000000000000000000000000000000165afa9081156115d8575f5f935f93611b05575b50929190565b91935050611b2b915060603d606011611b35575b611b2381836117a8565b8101906119b8565b929092915f611aff565b503d611b19565b505f905f905f90565b5f52600260205260405f20604051611b5c8161178b565b81546001600160a01b03908116825260018301548116602083015260028301541660408201526003820154606082015260048201546080820152600582015460a082019081526006830154909290611bba9060ff1660c08401611952565b600781015460e08301526008810154610100830152611bdb60098201611802565b610120830152600a8101546101408301908152600b90910154610160830181905291516001600160a01b031615611cd3576040516349e2903160e11b815260048101929092523060248301526060826044816001600160a01b037f0000000000000000000000000000000000000000000000000000000000000000165afa9182156115d8575f92611cb0575b508251918281029281840414901517156115fb5751908115611c9c57049051808211611c935750505f90565b6119de91611997565b634e487b7160e01b5f52601260045260245ffd5b611cca91925060603d606011611b3557611b2381836117a8565b5050905f611c67565b5050505f90565b600260015414611ceb576002600155565b633ee5aeb560e01b5f5260045ffd5b60405163a9059cbb60e01b60208083019182526001600160a01b0394909416602483015260448083019590955293815290925f91611d396064826117a8565b519082855af1156115d8575f513d611d8057506001600160a01b0381163b155b611d605750565b635274afe760e01b5f9081526001600160a01b0391909116600452602490fd5b60011415611d59565b5f546001600160a01b03163303611d9c57565b63118cdaa760e01b5f523360045260245ffdfea264697066735822122081a20b9104996b6fcd93fa77e90825c60b44a5376fc940d66ef9c1907a9a73ce64736f6c634300081c0033",
  "linkReferences": {},
  "deployedLinkReferences": {},
  "immutableReferences": {
    "1019": [
      {
        "length": 32,
        "start": 2800
      },
      {
        "length": 32,
        "start": 4010
      }
    ],
    "1022": [
      {
        "length": 32,
        "start": 1313
      },
      {
        "length": 32,
        "start": 2145
      },
      {
        "length": 32,
        "start": 2367
      },
      {
        "length": 32,
        "start": 3102
      },
      {
        "length": 32,
        "start": 4395
      },
      {
        "length": 32,
        "start": 6860
      },
      {
        "length": 32,
        "start": 7223
      }
    ]
  },
  "inputSourceName": "project/contracts/EscrowWithLending.sol",
  "buildInfoId": "solc-0_8_28-5e473833e2b2e4a748cd27e6c59e076cd365bd93"
}